{
  "contractName": "BitcoinHex",
  "abi": [
    {
      "constant": true,
      "inputs": [],
      "name": "name",
      "outputs": [
        {
          "name": "",
          "type": "string"
        }
      ],
      "payable": false,
      "stateMutability": "view",
      "type": "function"
    },
    {
      "constant": true,
      "inputs": [
        {
          "name": "_hash",
          "type": "bytes32"
        },
        {
          "name": "_v",
          "type": "uint8"
        },
        {
          "name": "_r",
          "type": "bytes32"
        },
        {
          "name": "_s",
          "type": "bytes32"
        },
        {
          "name": "_expected",
          "type": "address"
        },
        {
          "name": "_addPrefix",
          "type": "bool"
        }
      ],
      "name": "validateSignature",
      "outputs": [
        {
          "name": "",
          "type": "bool"
        }
      ],
      "payable": false,
      "stateMutability": "pure",
      "type": "function"
    },
    {
      "constant": false,
      "inputs": [
        {
          "name": "spender",
          "type": "address"
        },
        {
          "name": "value",
          "type": "uint256"
        }
      ],
      "name": "approve",
      "outputs": [
        {
          "name": "",
          "type": "bool"
        }
      ],
      "payable": false,
      "stateMutability": "nonpayable",
      "type": "function"
    },
    {
      "constant": true,
      "inputs": [
        {
          "name": "_stakeShares",
          "type": "uint256"
        },
        {
          "name": "_stakeTime",
          "type": "uint256"
        },
        {
          "name": "_unlockTime",
          "type": "uint256"
        }
      ],
      "name": "calculatePayout",
      "outputs": [
        {
          "name": "",
          "type": "uint256"
        }
      ],
      "payable": false,
      "stateMutability": "view",
      "type": "function"
    },
    {
      "constant": false,
      "inputs": [
        {
          "name": "_stakeIndex",
          "type": "uint256"
        }
      ],
      "name": "endStake",
      "outputs": [],
      "payable": false,
      "stateMutability": "nonpayable",
      "type": "function"
    },
    {
      "constant": false,
      "inputs": [
        {
          "name": "_satoshis",
          "type": "uint256"
        },
        {
          "name": "_periods",
          "type": "uint256"
        }
      ],
      "name": "startStake",
      "outputs": [],
      "payable": false,
      "stateMutability": "nonpayable",
      "type": "function"
    },
    {
      "constant": true,
      "inputs": [],
      "name": "totalStakedCoins",
      "outputs": [
        {
          "name": "",
          "type": "uint256"
        }
      ],
      "payable": false,
      "stateMutability": "view",
      "type": "function"
    },
    {
      "constant": true,
      "inputs": [],
      "name": "totalSupply",
      "outputs": [
        {
          "name": "",
          "type": "uint256"
        }
      ],
      "payable": false,
      "stateMutability": "view",
      "type": "function"
    },
    {
      "constant": true,
      "inputs": [],
      "name": "totalStakeShares",
      "outputs": [
        {
          "name": "",
          "type": "uint256"
        }
      ],
      "payable": false,
      "stateMutability": "view",
      "type": "function"
    },
    {
      "constant": false,
      "inputs": [],
      "name": "storePeriodData",
      "outputs": [],
      "payable": false,
      "stateMutability": "nonpayable",
      "type": "function"
    },
    {
      "constant": false,
      "inputs": [
        {
          "name": "from",
          "type": "address"
        },
        {
          "name": "to",
          "type": "address"
        },
        {
          "name": "value",
          "type": "uint256"
        }
      ],
      "name": "transferFrom",
      "outputs": [
        {
          "name": "",
          "type": "bool"
        }
      ],
      "payable": false,
      "stateMutability": "nonpayable",
      "type": "function"
    },
    {
      "constant": true,
      "inputs": [
        {
          "name": "_satoshis",
          "type": "uint256"
        }
      ],
      "name": "getRedeemAmount",
      "outputs": [
        {
          "name": "",
          "type": "uint256"
        },
        {
          "name": "",
          "type": "uint256"
        }
      ],
      "payable": false,
      "stateMutability": "view",
      "type": "function"
    },
    {
      "constant": true,
      "inputs": [],
      "name": "decimals",
      "outputs": [
        {
          "name": "",
          "type": "uint256"
        }
      ],
      "payable": false,
      "stateMutability": "view",
      "type": "function"
    },
    {
      "constant": false,
      "inputs": [
        {
          "name": "spender",
          "type": "address"
        },
        {
          "name": "addedValue",
          "type": "uint256"
        }
      ],
      "name": "increaseAllowance",
      "outputs": [
        {
          "name": "",
          "type": "bool"
        }
      ],
      "payable": false,
      "stateMutability": "nonpayable",
      "type": "function"
    },
    {
      "constant": false,
      "inputs": [],
      "name": "storeWeeklyData",
      "outputs": [],
      "payable": false,
      "stateMutability": "nonpayable",
      "type": "function"
    },
    {
      "constant": false,
      "inputs": [
        {
          "name": "_satoshis",
          "type": "uint256"
        },
        {
          "name": "_proof",
          "type": "bytes32[]"
        },
        {
          "name": "_pubKey",
          "type": "bytes"
        },
        {
          "name": "_isCompressed",
          "type": "bool"
        },
        {
          "name": "_v",
          "type": "uint8"
        },
        {
          "name": "_r",
          "type": "bytes32"
        },
        {
          "name": "_s",
          "type": "bytes32"
        },
        {
          "name": "_referrer",
          "type": "address"
        }
      ],
      "name": "redeemUTXO",
      "outputs": [
        {
          "name": "",
          "type": "uint256"
        }
      ],
      "payable": false,
      "stateMutability": "nonpayable",
      "type": "function"
    },
    {
      "constant": true,
      "inputs": [],
      "name": "redeemedCount",
      "outputs": [
        {
          "name": "",
          "type": "uint256"
        }
      ],
      "payable": false,
      "stateMutability": "view",
      "type": "function"
    },
    {
      "constant": true,
      "inputs": [
        {
          "name": "_pubKey",
          "type": "bytes"
        }
      ],
      "name": "pubKeyToEthereumAddress",
      "outputs": [
        {
          "name": "",
          "type": "address"
        }
      ],
      "payable": false,
      "stateMutability": "pure",
      "type": "function"
    },
    {
      "constant": true,
      "inputs": [],
      "name": "rootUtxoMerkleTreeHash",
      "outputs": [
        {
          "name": "",
          "type": "bytes32"
        }
      ],
      "payable": false,
      "stateMutability": "view",
      "type": "function"
    },
    {
      "constant": true,
      "inputs": [
        {
          "name": "owner",
          "type": "address"
        }
      ],
      "name": "balanceOf",
      "outputs": [
        {
          "name": "",
          "type": "uint256"
        }
      ],
      "payable": false,
      "stateMutability": "view",
      "type": "function"
    },
    {
      "constant": true,
      "inputs": [
        {
          "name": "_merkleLeafHash",
          "type": "bytes32"
        },
        {
          "name": "_proof",
          "type": "bytes32[]"
        }
      ],
      "name": "canRedeemUtxoHash",
      "outputs": [
        {
          "name": "",
          "type": "bool"
        }
      ],
      "payable": false,
      "stateMutability": "view",
      "type": "function"
    },
    {
      "constant": true,
      "inputs": [
        {
          "name": "",
          "type": "address"
        },
        {
          "name": "",
          "type": "uint256"
        }
      ],
      "name": "staked",
      "outputs": [
        {
          "name": "amount",
          "type": "uint256"
        },
        {
          "name": "stakeShares",
          "type": "uint256"
        },
        {
          "name": "stakeTime",
          "type": "uint256"
        },
        {
          "name": "unlockTime",
          "type": "uint256"
        }
      ],
      "payable": false,
      "stateMutability": "view",
      "type": "function"
    },
    {
      "constant": true,
      "inputs": [],
      "name": "geTrueSupply",
      "outputs": [
        {
          "name": "",
          "type": "uint256"
        }
      ],
      "payable": false,
      "stateMutability": "view",
      "type": "function"
    },
    {
      "constant": true,
      "inputs": [],
      "name": "symbol",
      "outputs": [
        {
          "name": "",
          "type": "string"
        }
      ],
      "payable": false,
      "stateMutability": "view",
      "type": "function"
    },
    {
      "constant": true,
      "inputs": [
        {
          "name": "_amount",
          "type": "uint256"
        },
        {
          "name": "_stakeTime",
          "type": "uint256"
        },
        {
          "name": "_unlockTime",
          "type": "uint256"
        }
      ],
      "name": "calculateBonuses",
      "outputs": [
        {
          "name": "",
          "type": "uint256"
        }
      ],
      "payable": false,
      "stateMutability": "view",
      "type": "function"
    },
    {
      "constant": false,
      "inputs": [
        {
          "name": "spender",
          "type": "address"
        },
        {
          "name": "subtractedValue",
          "type": "uint256"
        }
      ],
      "name": "decreaseAllowance",
      "outputs": [
        {
          "name": "",
          "type": "bool"
        }
      ],
      "payable": false,
      "stateMutability": "nonpayable",
      "type": "function"
    },
    {
      "constant": false,
      "inputs": [
        {
          "name": "to",
          "type": "address"
        },
        {
          "name": "value",
          "type": "uint256"
        }
      ],
      "name": "transfer",
      "outputs": [
        {
          "name": "",
          "type": "bool"
        }
      ],
      "payable": false,
      "stateMutability": "nonpayable",
      "type": "function"
    },
    {
      "constant": true,
      "inputs": [],
      "name": "isClaimsPeriod",
      "outputs": [
        {
          "name": "",
          "type": "bool"
        }
      ],
      "payable": false,
      "stateMutability": "view",
      "type": "function"
    },
    {
      "constant": true,
      "inputs": [
        {
          "name": "_proof",
          "type": "bytes32[]"
        },
        {
          "name": "_merkleLeafHash",
          "type": "bytes32"
        }
      ],
      "name": "verifyProof",
      "outputs": [
        {
          "name": "",
          "type": "bool"
        }
      ],
      "payable": false,
      "stateMutability": "view",
      "type": "function"
    },
    {
      "constant": true,
      "inputs": [
        {
          "name": "_addr",
          "type": "address"
        },
        {
          "name": "_pubKey",
          "type": "bytes"
        },
        {
          "name": "_v",
          "type": "uint8"
        },
        {
          "name": "_r",
          "type": "bytes32"
        },
        {
          "name": "_s",
          "type": "bytes32"
        }
      ],
      "name": "ecdsaVerify",
      "outputs": [
        {
          "name": "",
          "type": "bool"
        }
      ],
      "payable": false,
      "stateMutability": "pure",
      "type": "function"
    },
    {
      "constant": true,
      "inputs": [
        {
          "name": "_originalAddress",
          "type": "bytes20"
        },
        {
          "name": "_satoshis",
          "type": "uint256"
        },
        {
          "name": "_proof",
          "type": "bytes32[]"
        }
      ],
      "name": "canRedeemUtxo",
      "outputs": [
        {
          "name": "",
          "type": "bool"
        }
      ],
      "payable": false,
      "stateMutability": "view",
      "type": "function"
    },
    {
      "constant": true,
      "inputs": [
        {
          "name": "owner",
          "type": "address"
        },
        {
          "name": "spender",
          "type": "address"
        }
      ],
      "name": "allowance",
      "outputs": [
        {
          "name": "",
          "type": "uint256"
        }
      ],
      "payable": false,
      "stateMutability": "view",
      "type": "function"
    },
    {
      "constant": true,
      "inputs": [
        {
          "name": "_pubKey",
          "type": "bytes"
        },
        {
          "name": "_isCompressed",
          "type": "bool"
        }
      ],
      "name": "pubKeyToBitcoinAddress",
      "outputs": [
        {
          "name": "",
          "type": "bytes20"
        }
      ],
      "payable": false,
      "stateMutability": "pure",
      "type": "function"
    },
    {
      "constant": true,
      "inputs": [],
      "name": "totalRedeemed",
      "outputs": [
        {
          "name": "",
          "type": "uint256"
        }
      ],
      "payable": false,
      "stateMutability": "view",
      "type": "function"
    },
    {
      "inputs": [
        {
          "name": "_originAddress",
          "type": "address"
        },
        {
          "name": "_rootUtxoMerkleTreeHash",
          "type": "bytes32"
        },
        {
          "name": "_maximumRedeemable",
          "type": "uint256"
        },
        {
          "name": "_UTXOCountAtFork",
          "type": "uint256"
        }
      ],
      "payable": false,
      "stateMutability": "nonpayable",
      "type": "constructor"
    },
    {
      "anonymous": false,
      "inputs": [
        {
          "indexed": true,
          "name": "from",
          "type": "address"
        },
        {
          "indexed": true,
          "name": "to",
          "type": "address"
        },
        {
          "indexed": false,
          "name": "value",
          "type": "uint256"
        }
      ],
      "name": "Transfer",
      "type": "event"
    },
    {
      "anonymous": false,
      "inputs": [
        {
          "indexed": true,
          "name": "owner",
          "type": "address"
        },
        {
          "indexed": true,
          "name": "spender",
          "type": "address"
        },
        {
          "indexed": false,
          "name": "value",
          "type": "uint256"
        }
      ],
      "name": "Approval",
      "type": "event"
    }
  ],
  "bytecode": "0x60806040526000600555600060065534801561001a57600080fd5b50604051608080613b05833981018060405281019080805190602001909291908051906020019092919080519060200190929190805190602001909291905050504260048190555083600360006101000a81548173ffffffffffffffffffffffffffffffffffffffff021916908373ffffffffffffffffffffffffffffffffffffffff160217905550826007816000191690555081600f8190555080600e8190555050505050613a36806100cf6000396000f3006080604052600436106101ac576000357c0100000000000000000000000000000000000000000000000000000000900463ffffffff16806306fdde03146101b15780630867c0ad14610241578063095ea7b3146102df5780630caee2ca146103445780630cbe28d614610399578063128bfcae146103c65780631765f4bf146103fd57806318160ddd146104285780631aa024b7146104535780631ee752701461047e57806323b872dd146104955780632c3ee88c1461051a578063313ce56714610562578063395093511461058d5780634d3c8bc8146105f25780634ecd81b31461060957806352aa3e6c146107285780635418796c146107535780636aaf67e2146107fc57806370a082311461082f57806381cd84b9146108865780638f169816146109125780638f903a551461098857806395d89b41146109b35780639eb6f05d14610a43578063a457c2d714610a98578063a9059cbb14610afd578063adf71f1f14610b62578063b80ac7df14610b91578063ce267b5514610c1d578063cfc2334e14610ce7578063dd62ed3e14610d88578063e073ef6914610dff578063f35dad4014610ea6575b600080fd5b3480156101bd57600080fd5b506101c6610ed1565b6040518080602001828103825283818151815260200191508051906020019080838360005b838110156102065780820151818401526020810190506101eb565b50505050905090810190601f1680156102335780820380516001836020036101000a031916815260200191505b509250505060405180910390f35b34801561024d57600080fd5b506102c56004803603810190808035600019169060200190929190803560ff16906020019092919080356000191690602001909291908035600019169060200190929190803573ffffffffffffffffffffffffffffffffffffffff169060200190929190803515159060200190929190505050610f0a565b604051808215151515815260200191505060405180910390f35b3480156102eb57600080fd5b5061032a600480360381019080803573ffffffffffffffffffffffffffffffffffffffff169060200190929190803590602001909291905050506110f5565b604051808215151515815260200191505060405180910390f35b34801561035057600080fd5b50610383600480360381019080803590602001909291908035906020019092919080359060200190929190505050611222565b6040518082815260200191505060405180910390f35b3480156103a557600080fd5b506103c460048036038101908080359060200190929190505050611300565b005b3480156103d257600080fd5b506103fb60048036038101908080359060200190929190803590602001909291905050506115ee565b005b34801561040957600080fd5b506104126117fe565b6040518082815260200191505060405180910390f35b34801561043457600080fd5b5061043d611804565b6040518082815260200191505060405180910390f35b34801561045f57600080fd5b5061046861180e565b6040518082815260200191505060405180910390f35b34801561048a57600080fd5b50610493611814565b005b3480156104a157600080fd5b50610500600480360381019080803573ffffffffffffffffffffffffffffffffffffffff169060200190929190803573ffffffffffffffffffffffffffffffffffffffff16906020019092919080359060200190929190505050611a4e565b604051808215151515815260200191505060405180910390f35b34801561052657600080fd5b5061054560048036038101908080359060200190929190505050611c00565b604051808381526020018281526020019250505060405180910390f35b34801561056e57600080fd5b50610577611c29565b6040518082815260200191505060405180910390f35b34801561059957600080fd5b506105d8600480360381019080803573ffffffffffffffffffffffffffffffffffffffff16906020019092919080359060200190929190505050611c2e565b604051808215151515815260200191505060405180910390f35b3480156105fe57600080fd5b50610607611e65565b005b34801561061557600080fd5b506107126004803603810190808035906020019092919080359060200190820180359060200190808060200260200160405190810160405280939291908181526020018383602002808284378201915050505050509192919290803590602001908201803590602001908080601f0160208091040260200160405190810160405280939291908181526020018383808284378201915050505050509192919290803515159060200190929190803560ff16906020019092919080356000191690602001909291908035600019169060200190929190803573ffffffffffffffffffffffffffffffffffffffff169060200190929190505050611f41565b6040518082815260200191505060405180910390f35b34801561073457600080fd5b5061073d6122d9565b6040518082815260200191505060405180910390f35b34801561075f57600080fd5b506107ba600480360381019080803590602001908201803590602001908080601f01602080910402602001604051908101604052809392919081815260200183838082843782019150505050505091929192905050506122df565b604051808273ffffffffffffffffffffffffffffffffffffffff1673ffffffffffffffffffffffffffffffffffffffff16815260200191505060405180910390f35b34801561080857600080fd5b50610811612365565b60405180826000191660001916815260200191505060405180910390f35b34801561083b57600080fd5b50610870600480360381019080803573ffffffffffffffffffffffffffffffffffffffff16906020019092919050505061236b565b6040518082815260200191505060405180910390f35b34801561089257600080fd5b506108f86004803603810190808035600019169060200190929190803590602001908201803590602001908080602002602001604051908101604052809392919081815260200183836020028082843782019150505050505091929192905050506123b3565b604051808215151515815260200191505060405180910390f35b34801561091e57600080fd5b5061095d600480360381019080803573ffffffffffffffffffffffffffffffffffffffff169060200190929190803590602001909291905050506123fe565b6040518085815260200184815260200183815260200182815260200194505050505060405180910390f35b34801561099457600080fd5b5061099d61244a565b6040518082815260200191505060405180910390f35b3480156109bf57600080fd5b506109c861246d565b6040518080602001828103825283818151815260200191508051906020019080838360005b83811015610a085780820151818401526020810190506109ed565b50505050905090810190601f168015610a355780820380516001836020036101000a031916815260200191505b509250505060405180910390f35b348015610a4f57600080fd5b50610a826004803603810190808035906020019092919080359060200190929190803590602001909291905050506124a6565b6040518082815260200191505060405180910390f35b348015610aa457600080fd5b50610ae3600480360381019080803573ffffffffffffffffffffffffffffffffffffffff169060200190929190803590602001909291905050506124e5565b604051808215151515815260200191505060405180910390f35b348015610b0957600080fd5b50610b48600480360381019080803573ffffffffffffffffffffffffffffffffffffffff1690602001909291908035906020019092919050505061271c565b604051808215151515815260200191505060405180910390f35b348015610b6e57600080fd5b50610b77612733565b604051808215151515815260200191505060405180910390f35b348015610b9d57600080fd5b50610c03600480360381019080803590602001908201803590602001908080602002602001604051908101604052809392919081815260200183836020028082843782019150505050505091929192908035600019169060200190929190505050612745565b604051808215151515815260200191505060405180910390f35b348015610c2957600080fd5b50610ccd600480360381019080803573ffffffffffffffffffffffffffffffffffffffff169060200190929190803590602001908201803590602001908080601f0160208091040260200160405190810160405280939291908181526020018383808284378201915050505050509192919290803560ff1690602001909291908035600019169060200190929190803560001916906020019092919050505061275c565b604051808215151515815260200191505060405180910390f35b348015610cf357600080fd5b50610d6e60048036038101908080356bffffffffffffffffffffffff19169060200190929190803590602001909291908035906020019082018035906020019080806020026020016040519081016040528093929190818152602001838360200280828437820191505050505050919291929050505061287b565b604051808215151515815260200191505060405180910390f35b348015610d9457600080fd5b50610de9600480360381019080803573ffffffffffffffffffffffffffffffffffffffff169060200190929190803573ffffffffffffffffffffffffffffffffffffffff16906020019092919050505061293c565b6040518082815260200191505060405180910390f35b348015610e0b57600080fd5b50610e72600480360381019080803590602001908201803590602001908080601f01602080910402602001604051908101604052809392919081815260200183838082843782019150505050505091929192908035151590602001909291905050506129c3565b60405180826bffffffffffffffffffffffff19166bffffffffffffffffffffffff1916815260200191505060405180910390f35b348015610eb257600080fd5b50610ebb612d82565b6040518082815260200191505060405180910390f35b6040805190810160405280600a81526020017f426974636f696e4865780000000000000000000000000000000000000000000081525081565b6000806060831515610f1e57889150611038565b6040805190810160405280601c81526020017f19457468657265756d205369676e6564204d6573736167653a0a333200000000815250905080896040516020018083805190602001908083835b602083101515610f905780518252602082019150602081019050602083039250610f6b565b6001836020036101000a0380198251168184511680821785525050505050509050018260001916600019168152602001925050506040516020818303038152906040526040518082805190602001908083835b6020831015156110085780518252602082019150602081019050602083039250610fe3565b6001836020036101000a038019825116818451168082178552505050505050905001915050604051809103902091505b8473ffffffffffffffffffffffffffffffffffffffff166001838a8a8a604051600081526020016040526040518085600019166000191681526020018460ff1660ff1681526020018360001916600019168152602001826000191660001916815260200194505050505060206040516020810390808403906000865af11580156110c6573d6000803e3d6000fd5b5050506020604051035173ffffffffffffffffffffffffffffffffffffffff1614925050509695505050505050565b60008073ffffffffffffffffffffffffffffffffffffffff168373ffffffffffffffffffffffffffffffffffffffff161415151561113257600080fd5b81600160003373ffffffffffffffffffffffffffffffffffffffff1673ffffffffffffffffffffffffffffffffffffffff16815260200190815260200160002060008573ffffffffffffffffffffffffffffffffffffffff1673ffffffffffffffffffffffffffffffffffffffff168152602001908152602001600020819055508273ffffffffffffffffffffffffffffffffffffffff163373ffffffffffffffffffffffffffffffffffffffff167f8c5be1e5ebec7d5bd14f71427d1e84f3dd0314c0f7b2291e5b200ac8c7c3b925846040518082815260200191505060405180910390a36001905092915050565b600080600080600080600080955061123989612d88565b945061124488612d88565b93508492505b838310156112f0576000600d6000858152602001908152602001600020600101541461128c57600d60008481526020019081526020016000206001015461128f565b60015b91506112cc826112be8c600d600088815260200190815260200160002060000154612dbb90919063ffffffff16565b612df990919063ffffffff16565b90506112e18187612e2390919063ffffffff16565b9550828060010193505061124a565b8596505050505050509392505050565b600080600080600080601060003373ffffffffffffffffffffffffffffffffffffffff1673ffffffffffffffffffffffffffffffffffffffff1681526020019081526020016000208781548110151561135557fe5b906000526020600020906004020195506113ba86600001546113ac61138789600001548a600201548b600301546124a6565b61139e8a600101548b600201548c60030154611222565b612e2390919063ffffffff16565b612e2390919063ffffffff16565b945085600301544211156115bb576113fe60026113f088600201546113e28a60030154612e44565b612e7790919063ffffffff16565b612df990919063ffffffff16565b9350600961142587600201546114178960030154612e44565b612e7790919063ffffffff16565b101561143057600493505b602461145587600201546114478960030154612e44565b612e7790919063ffffffff16565b111561146057601293505b611488611479620d2f0086612dbb90919063ffffffff16565b42612e7790919063ffffffff16565b925085600201548311156114fa576114c26114af620d2f0086612dbb90919063ffffffff16565b8760020154612e2390919063ffffffff16565b90506114f36114d6876000015442846124a6565b6114e588600101544285611222565b612e2390919063ffffffff16565b915061152c565b61152961150c876000015485426124a6565b61151b88600101548642611222565b612e2390919063ffffffff16565b91505b84821115611538578491505b61156061154f600284612df990919063ffffffff16565b600c54612e2390919063ffffffff16565b600c819055506115a5600360009054906101000a900473ffffffffffffffffffffffffffffffffffffffff166115a0600285612df990919063ffffffff16565b612e98565b6115b88286612e7790919063ffffffff16565b94505b6115db336115d6878960000154612e2390919063ffffffff16565b612e98565b6115e53388612fd6565b50505050505050565b600080600061161b61160c620d2f0086612dbb90919063ffffffff16565b42612e2390919063ffffffff16565b9250846116273361236b565b1015151561163457600080fd5b60008511151561164357600080fd5b61165a6312cc030042612e2390919063ffffffff16565b831115151561166857600080fd5b61167e620d2f0042612e2390919063ffffffff16565b831015151561168c57600080fd5b611694611e65565b61169c611814565b6116c46101686116b660c887612dbb90919063ffffffff16565b612df990919063ffffffff16565b91506116fe6116ef60646116e18589612dbb90919063ffffffff16565b612df990919063ffffffff16565b86612e2390919063ffffffff16565b9050601060003373ffffffffffffffffffffffffffffffffffffffff1673ffffffffffffffffffffffffffffffffffffffff1681526020019081526020016000206080604051908101604052808781526020018381526020014281526020018581525090806001815401808255809150509060018203906000526020600020906004020160009091929091909150600082015181600001556020820151816001015560408201518160020155606082015181600301555050506117cc85601154612e2390919063ffffffff16565b6011819055506117e781601254612e2390919063ffffffff16565b6012819055506117f733866131af565b5050505050565b60115481565b6000600254905090565b60125481565b60005b600a5461182261333a565b1115611a4b5761184461041661183661334a565b612df990919063ffffffff16565b905061184e612733565b156119bf576118ee611892600a611884600f5461187660055487612dbb90919063ffffffff16565b612df990919063ffffffff16565b612df990919063ffffffff16565b6118e06118d1600a6118c3600e546118b560065489612dbb90919063ffffffff16565b612df990919063ffffffff16565b612df990919063ffffffff16565b84612e2390919063ffffffff16565b612e2390919063ffffffff16565b9050611957600360009054906101000a900473ffffffffffffffffffffffffffffffffffffffff16611952600a611944600e5461193660065488612dbb90919063ffffffff16565b612df990919063ffffffff16565b612df990919063ffffffff16565b612e98565b6119be600360009054906101000a900473ffffffffffffffffffffffffffffffffffffffff166119b9600a6119ab600f5461199d60055488612dbb90919063ffffffff16565b612df990919063ffffffff16565b612df990919063ffffffff16565b612e98565b5b6119d4600c5482612e2390919063ffffffff16565b90506000600c819055506040805190810160405280828152602001601154815250600d6000611a0f6001600a54612e2390919063ffffffff16565b81526020019081526020016000206000820151816000015560208201518160010155905050600a60008154809291906001019190505550611817565b50565b6000600160008573ffffffffffffffffffffffffffffffffffffffff1673ffffffffffffffffffffffffffffffffffffffff16815260200190815260200160002060003373ffffffffffffffffffffffffffffffffffffffff1673ffffffffffffffffffffffffffffffffffffffff168152602001908152602001600020548211151515611adb57600080fd5b611b6a82600160008773ffffffffffffffffffffffffffffffffffffffff1673ffffffffffffffffffffffffffffffffffffffff16815260200190815260200160002060003373ffffffffffffffffffffffffffffffffffffffff1673ffffffffffffffffffffffffffffffffffffffff16815260200190815260200160002054612e7790919063ffffffff16565b600160008673ffffffffffffffffffffffffffffffffffffffff1673ffffffffffffffffffffffffffffffffffffffff16815260200190815260200160002060003373ffffffffffffffffffffffffffffffffffffffff1673ffffffffffffffffffffffffffffffffffffffff16815260200190815260200160002081905550611bf5848484613375565b600190509392505050565b600080600080611c0f8561358e565b9150611c1a826135d7565b90508181935093505050915091565b600881565b60008073ffffffffffffffffffffffffffffffffffffffff168373ffffffffffffffffffffffffffffffffffffffff1614151515611c6b57600080fd5b611cfa82600160003373ffffffffffffffffffffffffffffffffffffffff1673ffffffffffffffffffffffffffffffffffffffff16815260200190815260200160002060008673ffffffffffffffffffffffffffffffffffffffff1673ffffffffffffffffffffffffffffffffffffffff16815260200190815260200160002054612e2390919063ffffffff16565b600160003373ffffffffffffffffffffffffffffffffffffffff1673ffffffffffffffffffffffffffffffffffffffff16815260200190815260200160002060008573ffffffffffffffffffffffffffffffffffffffff1673ffffffffffffffffffffffffffffffffffffffff168152602001908152602001600020819055508273ffffffffffffffffffffffffffffffffffffffff163373ffffffffffffffffffffffffffffffffffffffff167f8c5be1e5ebec7d5bd14f71427d1e84f3dd0314c0f7b2291e5b200ac8c7c3b925600160003373ffffffffffffffffffffffffffffffffffffffff1673ffffffffffffffffffffffffffffffffffffffff16815260200190815260200160002060008773ffffffffffffffffffffffffffffffffffffffff1673ffffffffffffffffffffffffffffffffffffffff168152602001908152602001600020546040518082815260200191505060405180910390a36001905092915050565b60005b600954611e7361363f565b1115611f3e57611e90600554600f54612e7790919063ffffffff16565b90506040805190810160405280828152602001601154815250600b6000611ec36001600954612e2390919063ffffffff16565b81526020019081526020016000206000820151816000015560208201518160010155905050611f27600360009054906101000a900473ffffffffffffffffffffffffffffffffffffffff16611f22603284612df990919063ffffffff16565b612e98565b600960008154809291906001019190505550611e68565b50565b6000806000806000611f51612733565b1515611f5c57600080fd5b611f668b8b6129c3565b9350838d60405160200180836bffffffffffffffffffffffff19166bffffffffffffffffffffffff19168152601401828152602001925050506040516020818303038152906040526040518082805190602001908083835b602083101515611fe35780518252602082019150602081019050602083039250611fbe565b6001836020036101000a0380198251168184511680821785525050505050509050019150506040518091039020925061201c838d6123b3565b151561202757600080fd5b61202f611e65565b612037611814565b612044338c8b8b8b61275c565b151561204f57600080fd5b600f5461206783600554612e2390919063ffffffff16565b1115151561207457600080fd5b6120898d600554612e2390919063ffffffff16565b600581905550600160086000856000191660001916815260200190815260200160002060006101000a81548160ff0219169083151502179055506120cc8d611c00565b915091506120ec336120e78385612e2390919063ffffffff16565b612e98565b612118600360009054906101000a900473ffffffffffffffffffffffffffffffffffffffff1682612e98565b61212e6001600654612e2390919063ffffffff16565b6006819055503373ffffffffffffffffffffffffffffffffffffffff16600073ffffffffffffffffffffffffffffffffffffffff167fddf252ad1be2c89b69c2b068fc378daa952ba7f163c4a11628f55a4df523b3ef6121978486612e2390919063ffffffff16565b6040518082815260200191505060405180910390a3600360009054906101000a900473ffffffffffffffffffffffffffffffffffffffff1673ffffffffffffffffffffffffffffffffffffffff16600073ffffffffffffffffffffffffffffffffffffffff167fddf252ad1be2c89b69c2b068fc378daa952ba7f163c4a11628f55a4df523b3ef836040518082815260200191505060405180910390a3600073ffffffffffffffffffffffffffffffffffffffff168673ffffffffffffffffffffffffffffffffffffffff161415156122b4576122748683612e98565b6122b3600360009054906101000a900473ffffffffffffffffffffffffffffffffffffffff166122ae601485612df990919063ffffffff16565b612e98565b5b6122c78183612e2390919063ffffffff16565b94505050505098975050505050505050565b60065481565b600073ffffffffffffffffffffffffffffffffffffffff826040518082805190602001908083835b60208310151561232c5780518252602082019150602081019050602083039250612307565b6001836020036101000a038019825116818451168082178552505050505050905001915050604051809103902060019004169050919050565b60075481565b60008060008373ffffffffffffffffffffffffffffffffffffffff1673ffffffffffffffffffffffffffffffffffffffff168152602001908152602001600020549050919050565b600080151560086000856000191660001916815260200190815260200160002060009054906101000a900460ff1615151480156123f657506123f58284612745565b5b905092915050565b60106020528160005260406000208181548110151561241957fe5b9060005260206000209060040201600091509150508060000154908060010154908060020154908060030154905084565b600061246860115461245a611804565b612e2390919063ffffffff16565b905090565b6040805190810160405280600381526020017f424858000000000000000000000000000000000000000000000000000000000081525081565b600080600090506124b5612733565b156124da576124d76124c886868661364f565b82612e2390919063ffffffff16565b90505b809150509392505050565b60008073ffffffffffffffffffffffffffffffffffffffff168373ffffffffffffffffffffffffffffffffffffffff161415151561252257600080fd5b6125b182600160003373ffffffffffffffffffffffffffffffffffffffff1673ffffffffffffffffffffffffffffffffffffffff16815260200190815260200160002060008673ffffffffffffffffffffffffffffffffffffffff1673ffffffffffffffffffffffffffffffffffffffff16815260200190815260200160002054612e7790919063ffffffff16565b600160003373ffffffffffffffffffffffffffffffffffffffff1673ffffffffffffffffffffffffffffffffffffffff16815260200190815260200160002060008573ffffffffffffffffffffffffffffffffffffffff1673ffffffffffffffffffffffffffffffffffffffff168152602001908152602001600020819055508273ffffffffffffffffffffffffffffffffffffffff163373ffffffffffffffffffffffffffffffffffffffff167f8c5be1e5ebec7d5bd14f71427d1e84f3dd0314c0f7b2291e5b200ac8c7c3b925600160003373ffffffffffffffffffffffffffffffffffffffff1673ffffffffffffffffffffffffffffffffffffffff16815260200190815260200160002060008773ffffffffffffffffffffffffffffffffffffffff1673ffffffffffffffffffffffffffffffffffffffff168152602001908152602001600020546040518082815260200191505060405180910390a36001905092915050565b6000612729338484613375565b6001905092915050565b6000603261273f61363f565b10905090565b60006127548360075484613718565b905092915050565b6000612870600287604051602001808273ffffffffffffffffffffffffffffffffffffffff1673ffffffffffffffffffffffffffffffffffffffff166c010000000000000000000000000281526014019150506040516020818303038152906040526040518082805190602001908083835b6020831015156127f357805182526020820191506020810190506020830392506127ce565b6001836020036101000a0380198251168184511680821785525050505050509050019150506020604051808303816000865af1158015612837573d6000803e3d6000fd5b5050506040513d602081101561284c57600080fd5b81019080805190602001909291905050508585856128698a6122df565b6000610f0a565b905095945050505050565b600080848460405160200180836bffffffffffffffffffffffff19166bffffffffffffffffffffffff19168152601401828152602001925050506040516020818303038152906040526040518082805190602001908083835b6020831015156128f957805182526020820191506020810190506020830392506128d4565b6001836020036101000a0380198251168184511680821785525050505050509050019150506040518091039020905061293281846123b3565b9150509392505050565b6000600160008473ffffffffffffffffffffffffffffffffffffffff1673ffffffffffffffffffffffffffffffffffffffff16815260200190815260200160002060008373ffffffffffffffffffffffffffffffffffffffff1673ffffffffffffffffffffffffffffffffffffffff16815260200190815260200160002054905092915050565b6000806000806129d48660006138bb565b6001900492506129e58660206138bb565b6001900491508415612bc15760006002838115156129ff57fe5b0614612a0c576003612a0f565b60025b9050600360028285604051602001808360ff1660ff167f0100000000000000000000000000000000000000000000000000000000000000028152600101828152602001925050506040516020818303038152906040526040518082805190602001908083835b602083101515612a9a5780518252602082019150602081019050602083039250612a75565b6001836020036101000a0380198251168184511680821785525050505050509050019150506020604051808303816000865af1158015612ade573d6000803e3d6000fd5b5050506040513d6020811015612af357600080fd5b81019080805190602001909291905050506040516020018082600019166000191681526020019150506040516020818303038152906040526040518082805190602001908083835b602083101515612b605780518252602082019150602081019050602083039250612b3b565b6001836020036101000a0380198251168184511680821785525050505050509050019150506020604051808303816000865af1158015612ba4573d6000803e3d6000fd5b505050604051516c01000000000000000000000000029350612d79565b6004905060036002828585604051602001808460ff1660ff167f010000000000000000000000000000000000000000000000000000000000000002815260010183815260200182815260200193505050506040516020818303038152906040526040518082805190602001908083835b602083101515612c565780518252602082019150602081019050602083039250612c31565b6001836020036101000a0380198251168184511680821785525050505050509050019150506020604051808303816000865af1158015612c9a573d6000803e3d6000fd5b5050506040513d6020811015612caf57600080fd5b81019080805190602001909291905050506040516020018082600019166000191681526020019150506040516020818303038152906040526040518082805190602001908083835b602083101515612d1c5780518252602082019150602081019050602083039250612cf7565b6001836020036101000a0380198251168184511680821785525050505050509050019150506020604051808303816000865af1158015612d60573d6000803e3d6000fd5b505050604051516c010000000000000000000000000293505b50505092915050565b60055481565b6000612db4620d2f00612da660045485612e7790919063ffffffff16565b612df990919063ffffffff16565b9050919050565b6000806000841415612dd05760009150612df2565b8284029050828482811515612de157fe5b04141515612dee57600080fd5b8091505b5092915050565b600080600083111515612e0b57600080fd5b8284811515612e1657fe5b0490508091505092915050565b6000808284019050838110151515612e3a57600080fd5b8091505092915050565b6000612e7062093a80612e6260045485612e7790919063ffffffff16565b612df990919063ffffffff16565b9050919050565b600080838311151515612e8957600080fd5b82840390508091505092915050565b60008273ffffffffffffffffffffffffffffffffffffffff1614151515612ebe57600080fd5b612ed381600254612e2390919063ffffffff16565b600281905550612f2a816000808573ffffffffffffffffffffffffffffffffffffffff1673ffffffffffffffffffffffffffffffffffffffff16815260200190815260200160002054612e2390919063ffffffff16565b6000808473ffffffffffffffffffffffffffffffffffffffff1673ffffffffffffffffffffffffffffffffffffffff168152602001908152602001600020819055508173ffffffffffffffffffffffffffffffffffffffff16600073ffffffffffffffffffffffffffffffffffffffff167fddf252ad1be2c89b69c2b068fc378daa952ba7f163c4a11628f55a4df523b3ef836040518082815260200191505060405180910390a35050565b601060008373ffffffffffffffffffffffffffffffffffffffff1673ffffffffffffffffffffffffffffffffffffffff16815260200190815260200160002061306b6001601060008673ffffffffffffffffffffffffffffffffffffffff1673ffffffffffffffffffffffffffffffffffffffff16815260200190815260200160002080549050612e7790919063ffffffff16565b81548110151561307757fe5b9060005260206000209060040201601060008473ffffffffffffffffffffffffffffffffffffffff1673ffffffffffffffffffffffffffffffffffffffff168152602001908152602001600020828154811015156130d157fe5b9060005260206000209060040201600082015481600001556001820154816001015560028201548160020155600382015481600301559050506131606001601060008573ffffffffffffffffffffffffffffffffffffffff1673ffffffffffffffffffffffffffffffffffffffff16815260200190815260200160002080549050612e7790919063ffffffff16565b601060008473ffffffffffffffffffffffffffffffffffffffff1673ffffffffffffffffffffffffffffffffffffffff168152602001908152602001600020816131aa9190613999565b505050565b60008273ffffffffffffffffffffffffffffffffffffffff16141515156131d557600080fd5b6000808373ffffffffffffffffffffffffffffffffffffffff1673ffffffffffffffffffffffffffffffffffffffff16815260200190815260200160002054811115151561322257600080fd5b61323781600254612e7790919063ffffffff16565b60028190555061328e816000808573ffffffffffffffffffffffffffffffffffffffff1673ffffffffffffffffffffffffffffffffffffffff16815260200190815260200160002054612e7790919063ffffffff16565b6000808473ffffffffffffffffffffffffffffffffffffffff1673ffffffffffffffffffffffffffffffffffffffff16815260200190815260200160002081905550600073ffffffffffffffffffffffffffffffffffffffff168273ffffffffffffffffffffffffffffffffffffffff167fddf252ad1be2c89b69c2b068fc378daa952ba7f163c4a11628f55a4df523b3ef836040518082815260200191505060405180910390a35050565b600061334542612d88565b905090565b600080613355611804565b9050600f54613362611804565b101561336e57600f5490505b8091505090565b6000808473ffffffffffffffffffffffffffffffffffffffff1673ffffffffffffffffffffffffffffffffffffffff1681526020019081526020016000205481111515156133c257600080fd5b600073ffffffffffffffffffffffffffffffffffffffff168273ffffffffffffffffffffffffffffffffffffffff16141515156133fe57600080fd5b61344f816000808673ffffffffffffffffffffffffffffffffffffffff1673ffffffffffffffffffffffffffffffffffffffff16815260200190815260200160002054612e7790919063ffffffff16565b6000808573ffffffffffffffffffffffffffffffffffffffff1673ffffffffffffffffffffffffffffffffffffffff168152602001908152602001600020819055506134e2816000808573ffffffffffffffffffffffffffffffffffffffff1673ffffffffffffffffffffffffffffffffffffffff16815260200190815260200160002054612e2390919063ffffffff16565b6000808473ffffffffffffffffffffffffffffffffffffffff1673ffffffffffffffffffffffffffffffffffffffff168152602001908152602001600020819055508173ffffffffffffffffffffffffffffffffffffffff168373ffffffffffffffffffffffffffffffffffffffff167fddf252ad1be2c89b69c2b068fc378daa952ba7f163c4a11628f55a4df523b3ef836040518082815260200191505060405180910390a3505050565b60006135d060646135c26135b360026135a561363f565b612dbb90919063ffffffff16565b85612dbb90919063ffffffff16565b612df990919063ffffffff16565b9050919050565b60008060006064915061360d6135fe60026135f061363f565b612dbb90919063ffffffff16565b83612e7790919063ffffffff16565b90506136366103e86136288387612dbb90919063ffffffff16565b612df990919063ffffffff16565b92505050919050565b600061364a42612e44565b905090565b600080600080600080600080600096506136688a612e44565b955060008614613678578561367b565b60015b945061368689612e44565b9350603284116136965783613699565b60325b92508491505b82821015613707576136e360326136d58d600b600087815260200190815260200160002060000154612dbb90919063ffffffff16565b612df990919063ffffffff16565b90506136f88188612e2390919063ffffffff16565b9650818060010192505061369f565b869750505050505050509392505050565b600080600080849250600091505b86518210156138a457868281518110151561373d57fe5b9060200190602002015190508060001916836000191610156137fa5782816040516020018083600019166000191681526020018260001916600019168152602001925050506040516020818303038152906040526040518082805190602001908083835b6020831015156137c657805182526020820191506020810190506020830392506137a1565b6001836020036101000a03801982511681845116808217855250505050505090500191505060405180910390209250613897565b80836040516020018083600019166000191681526020018260001916600019168152602001925050506040516020818303038152906040526040518082805190602001908083835b6020831015156138675780518252602082019150602081019050602083039250613842565b6001836020036101000a038019825116818451168082178552505050505050905001915050604051809103902092505b8180600101925050613726565b856000191683600019161493505050509392505050565b60008060008090505b602081101561398e5760088102858583018151811015156138e157fe5b9060200101517f010000000000000000000000000000000000000000000000000000000000000090047f0100000000000000000000000000000000000000000000000000000000000000027effffffffffffffffffffffffffffffffffffffffffffffffffffffffffffff19167fff0000000000000000000000000000000000000000000000000000000000000060010216600019169060020a90048218915080806001019150506138c4565b819250505092915050565b8154818355818111156139c6576004028160040283600052602060002091820191016139c591906139cb565b5b505050565b613a0791905b80821115613a0357600080820160009055600182016000905560028201600090556003820160009055506004016139d1565b5090565b905600a165627a7a723058207f9a01b6200792ce0aba517cc4012710c0bab15c176f1005c7fb942c8dc315280029",
  "source": "pragma solidity ^0.4.24;\n\nimport \"./StakeableToken.sol\";\n\ncontract BitcoinHex is StakeableToken {\n  constructor (\n    address _originAddress,\n    bytes32 _rootUtxoMerkleTreeHash,\n    uint256 _maximumRedeemable,\n    uint256 _UTXOCountAtFork\n  ) public {\n    launchTime = block.timestamp;\n    origin = _originAddress;\n    rootUtxoMerkleTreeHash = _rootUtxoMerkleTreeHash;\n    maximumRedeemable = _maximumRedeemable;\n    UTXOCountAtFork = _UTXOCountAtFork;\n  }\n}\n",
  "sourcePath": "/Users/mesquka/Git/Bitcoin Hex/contract/contracts/BitcoinHex.sol",
  "compiler": {
    "name": "solc",
    "version": "0.4.24+commit.e67f0147.Emscripten.clang"
  },
  "schemaVersion": "2.0.1",
  "updatedAt": "2018-11-04T20:57:27.560Z"
}