{
  "contractName": "BitcoinHex",
  "abi": [
    {
      "constant": true,
      "inputs": [],
      "name": "name",
      "outputs": [
        {
          "name": "",
          "type": "string"
        }
      ],
      "payable": false,
      "stateMutability": "view",
      "type": "function"
    },
    {
      "constant": true,
      "inputs": [
        {
          "name": "_hash",
          "type": "bytes32"
        },
        {
          "name": "_v",
          "type": "uint8"
        },
        {
          "name": "_r",
          "type": "bytes32"
        },
        {
          "name": "_s",
          "type": "bytes32"
        },
        {
          "name": "_expected",
          "type": "address"
        },
        {
          "name": "_addPrefix",
          "type": "bool"
        }
      ],
      "name": "validateSignature",
      "outputs": [
        {
          "name": "",
          "type": "bool"
        }
      ],
      "payable": false,
      "stateMutability": "pure",
      "type": "function"
    },
    {
      "constant": false,
      "inputs": [
        {
          "name": "spender",
          "type": "address"
        },
        {
          "name": "value",
          "type": "uint256"
        }
      ],
      "name": "approve",
      "outputs": [
        {
          "name": "",
          "type": "bool"
        }
      ],
      "payable": false,
      "stateMutability": "nonpayable",
      "type": "function"
    },
    {
      "constant": true,
      "inputs": [
        {
          "name": "_stakeShares",
          "type": "uint256"
        },
        {
          "name": "_stakeTime",
          "type": "uint256"
        },
        {
          "name": "_unlockTime",
          "type": "uint256"
        }
      ],
      "name": "calculatePayout",
      "outputs": [
        {
          "name": "",
          "type": "uint256"
        }
      ],
      "payable": false,
      "stateMutability": "view",
      "type": "function"
    },
    {
      "constant": false,
      "inputs": [
        {
          "name": "_stakeIndex",
          "type": "uint256"
        }
      ],
      "name": "endStake",
      "outputs": [],
      "payable": false,
      "stateMutability": "nonpayable",
      "type": "function"
    },
    {
      "constant": false,
      "inputs": [
        {
          "name": "_satoshis",
          "type": "uint256"
        },
        {
          "name": "_periods",
          "type": "uint256"
        }
      ],
      "name": "startStake",
      "outputs": [],
      "payable": false,
      "stateMutability": "nonpayable",
      "type": "function"
    },
    {
      "constant": true,
      "inputs": [],
      "name": "totalStakedCoins",
      "outputs": [
        {
          "name": "",
          "type": "uint256"
        }
      ],
      "payable": false,
      "stateMutability": "view",
      "type": "function"
    },
    {
      "constant": true,
      "inputs": [],
      "name": "totalSupply",
      "outputs": [
        {
          "name": "",
          "type": "uint256"
        }
      ],
      "payable": false,
      "stateMutability": "view",
      "type": "function"
    },
    {
      "constant": true,
      "inputs": [],
      "name": "totalStakeShares",
      "outputs": [
        {
          "name": "",
          "type": "uint256"
        }
      ],
      "payable": false,
      "stateMutability": "view",
      "type": "function"
    },
    {
      "constant": false,
      "inputs": [],
      "name": "storePeriodData",
      "outputs": [],
      "payable": false,
      "stateMutability": "nonpayable",
      "type": "function"
    },
    {
      "constant": false,
      "inputs": [
        {
          "name": "from",
          "type": "address"
        },
        {
          "name": "to",
          "type": "address"
        },
        {
          "name": "value",
          "type": "uint256"
        }
      ],
      "name": "transferFrom",
      "outputs": [
        {
          "name": "",
          "type": "bool"
        }
      ],
      "payable": false,
      "stateMutability": "nonpayable",
      "type": "function"
    },
    {
      "constant": true,
      "inputs": [
        {
          "name": "_satoshis",
          "type": "uint256"
        }
      ],
      "name": "getRedeemAmount",
      "outputs": [
        {
          "name": "",
          "type": "uint256"
        },
        {
          "name": "",
          "type": "uint256"
        }
      ],
      "payable": false,
      "stateMutability": "view",
      "type": "function"
    },
    {
      "constant": true,
      "inputs": [],
      "name": "decimals",
      "outputs": [
        {
          "name": "",
          "type": "uint256"
        }
      ],
      "payable": false,
      "stateMutability": "view",
      "type": "function"
    },
    {
      "constant": false,
      "inputs": [
        {
          "name": "spender",
          "type": "address"
        },
        {
          "name": "addedValue",
          "type": "uint256"
        }
      ],
      "name": "increaseAllowance",
      "outputs": [
        {
          "name": "",
          "type": "bool"
        }
      ],
      "payable": false,
      "stateMutability": "nonpayable",
      "type": "function"
    },
    {
      "constant": false,
      "inputs": [],
      "name": "storeWeeklyData",
      "outputs": [],
      "payable": false,
      "stateMutability": "nonpayable",
      "type": "function"
    },
    {
      "constant": false,
      "inputs": [
        {
          "name": "_satoshis",
          "type": "uint256"
        },
        {
          "name": "_proof",
          "type": "bytes32[]"
        },
        {
          "name": "_pubKey",
          "type": "bytes"
        },
        {
          "name": "_isCompressed",
          "type": "bool"
        },
        {
          "name": "_v",
          "type": "uint8"
        },
        {
          "name": "_r",
          "type": "bytes32"
        },
        {
          "name": "_s",
          "type": "bytes32"
        },
        {
          "name": "_referrer",
          "type": "address"
        }
      ],
      "name": "redeemUTXO",
      "outputs": [
        {
          "name": "",
          "type": "uint256"
        }
      ],
      "payable": false,
      "stateMutability": "nonpayable",
      "type": "function"
    },
    {
      "constant": true,
      "inputs": [],
      "name": "redeemedCount",
      "outputs": [
        {
          "name": "",
          "type": "uint256"
        }
      ],
      "payable": false,
      "stateMutability": "view",
      "type": "function"
    },
    {
      "constant": true,
      "inputs": [
        {
          "name": "_pubKey",
          "type": "bytes"
        }
      ],
      "name": "pubKeyToEthereumAddress",
      "outputs": [
        {
          "name": "",
          "type": "address"
        }
      ],
      "payable": false,
      "stateMutability": "pure",
      "type": "function"
    },
    {
      "constant": true,
      "inputs": [],
      "name": "rootUtxoMerkleTreeHash",
      "outputs": [
        {
          "name": "",
          "type": "bytes32"
        }
      ],
      "payable": false,
      "stateMutability": "view",
      "type": "function"
    },
    {
      "constant": true,
      "inputs": [
        {
          "name": "owner",
          "type": "address"
        }
      ],
      "name": "balanceOf",
      "outputs": [
        {
          "name": "",
          "type": "uint256"
        }
      ],
      "payable": false,
      "stateMutability": "view",
      "type": "function"
    },
    {
      "constant": true,
      "inputs": [
        {
          "name": "_merkleLeafHash",
          "type": "bytes32"
        },
        {
          "name": "_proof",
          "type": "bytes32[]"
        }
      ],
      "name": "canRedeemUtxoHash",
      "outputs": [
        {
          "name": "",
          "type": "bool"
        }
      ],
      "payable": false,
      "stateMutability": "view",
      "type": "function"
    },
    {
      "constant": true,
      "inputs": [
        {
          "name": "",
          "type": "address"
        },
        {
          "name": "",
          "type": "uint256"
        }
      ],
      "name": "staked",
      "outputs": [
        {
          "name": "amount",
          "type": "uint256"
        },
        {
          "name": "stakeShares",
          "type": "uint256"
        },
        {
          "name": "stakeTime",
          "type": "uint256"
        },
        {
          "name": "unlockTime",
          "type": "uint256"
        }
      ],
      "payable": false,
      "stateMutability": "view",
      "type": "function"
    },
    {
      "constant": true,
      "inputs": [],
      "name": "geTrueSupply",
      "outputs": [
        {
          "name": "",
          "type": "uint256"
        }
      ],
      "payable": false,
      "stateMutability": "view",
      "type": "function"
    },
    {
      "constant": true,
      "inputs": [],
      "name": "symbol",
      "outputs": [
        {
          "name": "",
          "type": "string"
        }
      ],
      "payable": false,
      "stateMutability": "view",
      "type": "function"
    },
    {
      "constant": true,
      "inputs": [
        {
          "name": "_amount",
          "type": "uint256"
        },
        {
          "name": "_stakeTime",
          "type": "uint256"
        },
        {
          "name": "_unlockTime",
          "type": "uint256"
        }
      ],
      "name": "calculateBonuses",
      "outputs": [
        {
          "name": "",
          "type": "uint256"
        }
      ],
      "payable": false,
      "stateMutability": "view",
      "type": "function"
    },
    {
      "constant": false,
      "inputs": [
        {
          "name": "spender",
          "type": "address"
        },
        {
          "name": "subtractedValue",
          "type": "uint256"
        }
      ],
      "name": "decreaseAllowance",
      "outputs": [
        {
          "name": "",
          "type": "bool"
        }
      ],
      "payable": false,
      "stateMutability": "nonpayable",
      "type": "function"
    },
    {
      "constant": false,
      "inputs": [
        {
          "name": "to",
          "type": "address"
        },
        {
          "name": "value",
          "type": "uint256"
        }
      ],
      "name": "transfer",
      "outputs": [
        {
          "name": "",
          "type": "bool"
        }
      ],
      "payable": false,
      "stateMutability": "nonpayable",
      "type": "function"
    },
    {
      "constant": true,
      "inputs": [],
      "name": "isClaimsPeriod",
      "outputs": [
        {
          "name": "",
          "type": "bool"
        }
      ],
      "payable": false,
      "stateMutability": "view",
      "type": "function"
    },
    {
      "constant": true,
      "inputs": [
        {
          "name": "_proof",
          "type": "bytes32[]"
        },
        {
          "name": "_merkleLeafHash",
          "type": "bytes32"
        }
      ],
      "name": "verifyProof",
      "outputs": [
        {
          "name": "",
          "type": "bool"
        }
      ],
      "payable": false,
      "stateMutability": "view",
      "type": "function"
    },
    {
      "constant": true,
      "inputs": [
        {
          "name": "_addr",
          "type": "address"
        },
        {
          "name": "_pubKey",
          "type": "bytes"
        },
        {
          "name": "_v",
          "type": "uint8"
        },
        {
          "name": "_r",
          "type": "bytes32"
        },
        {
          "name": "_s",
          "type": "bytes32"
        }
      ],
      "name": "ecdsaVerify",
      "outputs": [
        {
          "name": "",
          "type": "bool"
        }
      ],
      "payable": false,
      "stateMutability": "pure",
      "type": "function"
    },
    {
      "constant": true,
      "inputs": [
        {
          "name": "_originalAddress",
          "type": "bytes20"
        },
        {
          "name": "_satoshis",
          "type": "uint256"
        },
        {
          "name": "_proof",
          "type": "bytes32[]"
        }
      ],
      "name": "canRedeemUtxo",
      "outputs": [
        {
          "name": "",
          "type": "bool"
        }
      ],
      "payable": false,
      "stateMutability": "view",
      "type": "function"
    },
    {
      "constant": true,
      "inputs": [
        {
          "name": "owner",
          "type": "address"
        },
        {
          "name": "spender",
          "type": "address"
        }
      ],
      "name": "allowance",
      "outputs": [
        {
          "name": "",
          "type": "uint256"
        }
      ],
      "payable": false,
      "stateMutability": "view",
      "type": "function"
    },
    {
      "constant": true,
      "inputs": [
        {
          "name": "_pubKey",
          "type": "bytes"
        },
        {
          "name": "_isCompressed",
          "type": "bool"
        }
      ],
      "name": "pubKeyToBitcoinAddress",
      "outputs": [
        {
          "name": "",
          "type": "bytes20"
        }
      ],
      "payable": false,
      "stateMutability": "pure",
      "type": "function"
    },
    {
      "constant": true,
      "inputs": [],
      "name": "totalRedeemed",
      "outputs": [
        {
          "name": "",
          "type": "uint256"
        }
      ],
      "payable": false,
      "stateMutability": "view",
      "type": "function"
    },
    {
      "inputs": [
        {
          "name": "_originAddress",
          "type": "address"
        },
        {
          "name": "_rootUtxoMerkleTreeHash",
          "type": "bytes32"
        },
        {
          "name": "_maximumRedeemable",
          "type": "uint256"
        },
        {
          "name": "_UTXOCountAtFork",
          "type": "uint256"
        }
      ],
      "payable": false,
      "stateMutability": "nonpayable",
      "type": "constructor"
    },
    {
      "anonymous": false,
      "inputs": [
        {
          "indexed": true,
          "name": "from",
          "type": "address"
        },
        {
          "indexed": true,
          "name": "to",
          "type": "address"
        },
        {
          "indexed": false,
          "name": "value",
          "type": "uint256"
        }
      ],
      "name": "Transfer",
      "type": "event"
    },
    {
      "anonymous": false,
      "inputs": [
        {
          "indexed": true,
          "name": "owner",
          "type": "address"
        },
        {
          "indexed": true,
          "name": "spender",
          "type": "address"
        },
        {
          "indexed": false,
          "name": "value",
          "type": "uint256"
        }
      ],
      "name": "Approval",
      "type": "event"
    }
  ],
  "bytecode": "0x60806040526000600555600060065534801561001a57600080fd5b50604051608080613864833981018060405281019080805190602001909291908051906020019092919080519060200190929190805190602001909291905050504260048190555083600360006101000a81548173ffffffffffffffffffffffffffffffffffffffff021916908373ffffffffffffffffffffffffffffffffffffffff160217905550826007816000191690555081600f8190555080600e8190555050505050613795806100cf6000396000f3006080604052600436106101ac576000357c0100000000000000000000000000000000000000000000000000000000900463ffffffff16806306fdde03146101b15780630867c0ad14610241578063095ea7b3146102df5780630caee2ca146103445780630cbe28d614610399578063128bfcae146103c65780631765f4bf146103fd57806318160ddd146104285780631aa024b7146104535780631ee752701461047e57806323b872dd146104955780632c3ee88c1461051a578063313ce56714610562578063395093511461058d5780634d3c8bc8146105f25780634ecd81b31461060957806352aa3e6c146107285780635418796c146107535780636aaf67e2146107fc57806370a082311461082f57806381cd84b9146108865780638f169816146109125780638f903a551461098857806395d89b41146109b35780639eb6f05d14610a43578063a457c2d714610a98578063a9059cbb14610afd578063adf71f1f14610b62578063b80ac7df14610b91578063ce267b5514610c1d578063cfc2334e14610ce7578063dd62ed3e14610d88578063e073ef6914610dff578063f35dad4014610ea6575b600080fd5b3480156101bd57600080fd5b506101c6610ed1565b6040518080602001828103825283818151815260200191508051906020019080838360005b838110156102065780820151818401526020810190506101eb565b50505050905090810190601f1680156102335780820380516001836020036101000a031916815260200191505b509250505060405180910390f35b34801561024d57600080fd5b506102c56004803603810190808035600019169060200190929190803560ff16906020019092919080356000191690602001909291908035600019169060200190929190803573ffffffffffffffffffffffffffffffffffffffff169060200190929190803515159060200190929190505050610f0a565b604051808215151515815260200191505060405180910390f35b3480156102eb57600080fd5b5061032a600480360381019080803573ffffffffffffffffffffffffffffffffffffffff169060200190929190803590602001909291905050506110f5565b604051808215151515815260200191505060405180910390f35b34801561035057600080fd5b50610383600480360381019080803590602001909291908035906020019092919080359060200190929190505050611222565b6040518082815260200191505060405180910390f35b3480156103a557600080fd5b506103c4600480360381019080803590602001909291905050506112d5565b005b3480156103d257600080fd5b506103fb6004803603810190808035906020019092919080359060200190929190505050611597565b005b34801561040957600080fd5b506104126117a7565b6040518082815260200191505060405180910390f35b34801561043457600080fd5b5061043d6117ad565b6040518082815260200191505060405180910390f35b34801561045f57600080fd5b506104686117b7565b6040518082815260200191505060405180910390f35b34801561048a57600080fd5b506104936117bd565b005b3480156104a157600080fd5b50610500600480360381019080803573ffffffffffffffffffffffffffffffffffffffff169060200190929190803573ffffffffffffffffffffffffffffffffffffffff169060200190929190803590602001909291905050506119f7565b604051808215151515815260200191505060405180910390f35b34801561052657600080fd5b5061054560048036038101908080359060200190929190505050611ba9565b604051808381526020018281526020019250505060405180910390f35b34801561056e57600080fd5b50610577611bd2565b6040518082815260200191505060405180910390f35b34801561059957600080fd5b506105d8600480360381019080803573ffffffffffffffffffffffffffffffffffffffff16906020019092919080359060200190929190505050611bd7565b604051808215151515815260200191505060405180910390f35b3480156105fe57600080fd5b50610607611e0e565b005b34801561061557600080fd5b506107126004803603810190808035906020019092919080359060200190820180359060200190808060200260200160405190810160405280939291908181526020018383602002808284378201915050505050509192919290803590602001908201803590602001908080601f0160208091040260200160405190810160405280939291908181526020018383808284378201915050505050509192919290803515159060200190929190803560ff16906020019092919080356000191690602001909291908035600019169060200190929190803573ffffffffffffffffffffffffffffffffffffffff169060200190929190505050611eea565b6040518082815260200191505060405180910390f35b34801561073457600080fd5b5061073d612282565b6040518082815260200191505060405180910390f35b34801561075f57600080fd5b506107ba600480360381019080803590602001908201803590602001908080601f0160208091040260200160405190810160405280939291908181526020018383808284378201915050505050509192919290505050612288565b604051808273ffffffffffffffffffffffffffffffffffffffff1673ffffffffffffffffffffffffffffffffffffffff16815260200191505060405180910390f35b34801561080857600080fd5b5061081161230e565b60405180826000191660001916815260200191505060405180910390f35b34801561083b57600080fd5b50610870600480360381019080803573ffffffffffffffffffffffffffffffffffffffff169060200190929190505050612314565b6040518082815260200191505060405180910390f35b34801561089257600080fd5b506108f860048036038101908080356000191690602001909291908035906020019082018035906020019080806020026020016040519081016040528093929190818152602001838360200280828437820191505050505050919291929050505061235c565b604051808215151515815260200191505060405180910390f35b34801561091e57600080fd5b5061095d600480360381019080803573ffffffffffffffffffffffffffffffffffffffff169060200190929190803590602001909291905050506123a7565b6040518085815260200184815260200183815260200182815260200194505050505060405180910390f35b34801561099457600080fd5b5061099d6123f3565b6040518082815260200191505060405180910390f35b3480156109bf57600080fd5b506109c8612416565b6040518080602001828103825283818151815260200191508051906020019080838360005b83811015610a085780820151818401526020810190506109ed565b50505050905090810190601f168015610a355780820380516001836020036101000a031916815260200191505b509250505060405180910390f35b348015610a4f57600080fd5b50610a8260048036038101908080359060200190929190803590602001909291908035906020019092919050505061244f565b6040518082815260200191505060405180910390f35b348015610aa457600080fd5b50610ae3600480360381019080803573ffffffffffffffffffffffffffffffffffffffff1690602001909291908035906020019092919050505061248e565b604051808215151515815260200191505060405180910390f35b348015610b0957600080fd5b50610b48600480360381019080803573ffffffffffffffffffffffffffffffffffffffff169060200190929190803590602001909291905050506126c5565b604051808215151515815260200191505060405180910390f35b348015610b6e57600080fd5b50610b776126dc565b604051808215151515815260200191505060405180910390f35b348015610b9d57600080fd5b50610c036004803603810190808035906020019082018035906020019080806020026020016040519081016040528093929190818152602001838360200280828437820191505050505050919291929080356000191690602001909291905050506126ee565b604051808215151515815260200191505060405180910390f35b348015610c2957600080fd5b50610ccd600480360381019080803573ffffffffffffffffffffffffffffffffffffffff169060200190929190803590602001908201803590602001908080601f0160208091040260200160405190810160405280939291908181526020018383808284378201915050505050509192919290803560ff16906020019092919080356000191690602001909291908035600019169060200190929190505050612705565b604051808215151515815260200191505060405180910390f35b348015610cf357600080fd5b50610d6e60048036038101908080356bffffffffffffffffffffffff191690602001909291908035906020019092919080359060200190820180359060200190808060200260200160405190810160405280939291908181526020018383602002808284378201915050505050509192919290505050612824565b604051808215151515815260200191505060405180910390f35b348015610d9457600080fd5b50610de9600480360381019080803573ffffffffffffffffffffffffffffffffffffffff169060200190929190803573ffffffffffffffffffffffffffffffffffffffff1690602001909291905050506128e5565b6040518082815260200191505060405180910390f35b348015610e0b57600080fd5b50610e72600480360381019080803590602001908201803590602001908080601f016020809104026020016040519081016040528093929190818152602001838380828437820191505050505050919291929080351515906020019092919050505061296c565b60405180826bffffffffffffffffffffffff19166bffffffffffffffffffffffff1916815260200191505060405180910390f35b348015610eb257600080fd5b50610ebb612d2b565b6040518082815260200191505060405180910390f35b6040805190810160405280600a81526020017f426974636f696e4865780000000000000000000000000000000000000000000081525081565b6000806060831515610f1e57889150611038565b6040805190810160405280601c81526020017f19457468657265756d205369676e6564204d6573736167653a0a333200000000815250905080896040516020018083805190602001908083835b602083101515610f905780518252602082019150602081019050602083039250610f6b565b6001836020036101000a0380198251168184511680821785525050505050509050018260001916600019168152602001925050506040516020818303038152906040526040518082805190602001908083835b6020831015156110085780518252602082019150602081019050602083039250610fe3565b6001836020036101000a038019825116818451168082178552505050505050905001915050604051809103902091505b8473ffffffffffffffffffffffffffffffffffffffff166001838a8a8a604051600081526020016040526040518085600019166000191681526020018460ff1660ff1681526020018360001916600019168152602001826000191660001916815260200194505050505060206040516020810390808403906000865af11580156110c6573d6000803e3d6000fd5b5050506020604051035173ffffffffffffffffffffffffffffffffffffffff1614925050509695505050505050565b60008073ffffffffffffffffffffffffffffffffffffffff168373ffffffffffffffffffffffffffffffffffffffff161415151561113257600080fd5b81600160003373ffffffffffffffffffffffffffffffffffffffff1673ffffffffffffffffffffffffffffffffffffffff16815260200190815260200160002060008573ffffffffffffffffffffffffffffffffffffffff1673ffffffffffffffffffffffffffffffffffffffff168152602001908152602001600020819055508273ffffffffffffffffffffffffffffffffffffffff163373ffffffffffffffffffffffffffffffffffffffff167f8c5be1e5ebec7d5bd14f71427d1e84f3dd0314c0f7b2291e5b200ac8c7c3b925846040518082815260200191505060405180910390a36001905092915050565b6000806000806000806000945061123888612d31565b935061124387612d31565b92508391505b828210156112c6576112a2600d6000848152602001908152602001600020600101546112948b600d600087815260200190815260200160002060000154612d6490919063ffffffff16565b612da290919063ffffffff16565b90506112b78186612dcc90919063ffffffff16565b94508180600101925050611249565b84955050505050509392505050565b600080600080600080601060003373ffffffffffffffffffffffffffffffffffffffff1673ffffffffffffffffffffffffffffffffffffffff1681526020019081526020016000208781548110151561132a57fe5b9060005260206000209060040201955061137961135487600001548860020154896003015461244f565b61136b886001015489600201548a60030154611222565b612dcc90919063ffffffff16565b9450856003015442111561156e576113bd60026113af88600201546113a18a60030154612ded565b612e2090919063ffffffff16565b612da290919063ffffffff16565b935060096113e487600201546113d68960030154612ded565b612e2090919063ffffffff16565b10156113ef57600493505b602461141487600201546114068960030154612ded565b612e2090919063ffffffff16565b111561141f57601293505b611447611438620d2f0086612d6490919063ffffffff16565b42612e2090919063ffffffff16565b925085600201548311156114b95761148161146e620d2f0086612d6490919063ffffffff16565b8760020154612dcc90919063ffffffff16565b90506114b26114958760000154428461244f565b6114a488600101544285611222565b612dcc90919063ffffffff16565b91506114eb565b6114e86114cb8760000154854261244f565b6114da88600101548642611222565b612dcc90919063ffffffff16565b91505b611513611502600284612da290919063ffffffff16565b600c54612dcc90919063ffffffff16565b600c81905550611558600360009054906101000a900473ffffffffffffffffffffffffffffffffffffffff16611553600285612da290919063ffffffff16565b612e41565b61156b8286612e2090919063ffffffff16565b94505b61158e33611589878960000154612dcc90919063ffffffff16565b612e41565b50505050505050565b60008060006115c46115b5620d2f0086612d6490919063ffffffff16565b42612dcc90919063ffffffff16565b9250846115d033612314565b101515156115dd57600080fd5b6000851115156115ec57600080fd5b6116036312cc030042612dcc90919063ffffffff16565b831115151561161157600080fd5b611627620d2f0042612dcc90919063ffffffff16565b831015151561163557600080fd5b61163d611e0e565b6116456117bd565b61166d61016861165f60c887612d6490919063ffffffff16565b612da290919063ffffffff16565b91506116a7611698606461168a8589612d6490919063ffffffff16565b612da290919063ffffffff16565b86612dcc90919063ffffffff16565b9050601060003373ffffffffffffffffffffffffffffffffffffffff1673ffffffffffffffffffffffffffffffffffffffff16815260200190815260200160002060806040519081016040528087815260200183815260200142815260200185815250908060018154018082558091505090600182039060005260206000209060040201600090919290919091506000820151816000015560208201518160010155604082015181600201556060820151816003015550505061177585601154612dcc90919063ffffffff16565b60118190555061179081601254612dcc90919063ffffffff16565b6012819055506117a03386612f7f565b5050505050565b60115481565b6000600254905090565b60125481565b60005b600a546117cb61310a565b11156119f4576117ed6104166117df61311a565b612da290919063ffffffff16565b90506117f76126dc565b156119685761189761183b600a61182d600f5461181f60055487612d6490919063ffffffff16565b612da290919063ffffffff16565b612da290919063ffffffff16565b61188961187a600a61186c600e5461185e60065489612d6490919063ffffffff16565b612da290919063ffffffff16565b612da290919063ffffffff16565b84612dcc90919063ffffffff16565b612dcc90919063ffffffff16565b9050611900600360009054906101000a900473ffffffffffffffffffffffffffffffffffffffff166118fb600a6118ed600e546118df60065488612d6490919063ffffffff16565b612da290919063ffffffff16565b612da290919063ffffffff16565b612e41565b611967600360009054906101000a900473ffffffffffffffffffffffffffffffffffffffff16611962600a611954600f5461194660055488612d6490919063ffffffff16565b612da290919063ffffffff16565b612da290919063ffffffff16565b612e41565b5b61197d600c5482612dcc90919063ffffffff16565b90506000600c819055506040805190810160405280828152602001601154815250600d60006119b86001600a54612dcc90919063ffffffff16565b81526020019081526020016000206000820151816000015560208201518160010155905050600a600081548092919060010191905055506117c0565b50565b6000600160008573ffffffffffffffffffffffffffffffffffffffff1673ffffffffffffffffffffffffffffffffffffffff16815260200190815260200160002060003373ffffffffffffffffffffffffffffffffffffffff1673ffffffffffffffffffffffffffffffffffffffff168152602001908152602001600020548211151515611a8457600080fd5b611b1382600160008773ffffffffffffffffffffffffffffffffffffffff1673ffffffffffffffffffffffffffffffffffffffff16815260200190815260200160002060003373ffffffffffffffffffffffffffffffffffffffff1673ffffffffffffffffffffffffffffffffffffffff16815260200190815260200160002054612e2090919063ffffffff16565b600160008673ffffffffffffffffffffffffffffffffffffffff1673ffffffffffffffffffffffffffffffffffffffff16815260200190815260200160002060003373ffffffffffffffffffffffffffffffffffffffff1673ffffffffffffffffffffffffffffffffffffffff16815260200190815260200160002081905550611b9e848484613145565b600190509392505050565b600080600080611bb88561335e565b9150611bc3826133a7565b90508181935093505050915091565b600881565b60008073ffffffffffffffffffffffffffffffffffffffff168373ffffffffffffffffffffffffffffffffffffffff1614151515611c1457600080fd5b611ca382600160003373ffffffffffffffffffffffffffffffffffffffff1673ffffffffffffffffffffffffffffffffffffffff16815260200190815260200160002060008673ffffffffffffffffffffffffffffffffffffffff1673ffffffffffffffffffffffffffffffffffffffff16815260200190815260200160002054612dcc90919063ffffffff16565b600160003373ffffffffffffffffffffffffffffffffffffffff1673ffffffffffffffffffffffffffffffffffffffff16815260200190815260200160002060008573ffffffffffffffffffffffffffffffffffffffff1673ffffffffffffffffffffffffffffffffffffffff168152602001908152602001600020819055508273ffffffffffffffffffffffffffffffffffffffff163373ffffffffffffffffffffffffffffffffffffffff167f8c5be1e5ebec7d5bd14f71427d1e84f3dd0314c0f7b2291e5b200ac8c7c3b925600160003373ffffffffffffffffffffffffffffffffffffffff1673ffffffffffffffffffffffffffffffffffffffff16815260200190815260200160002060008773ffffffffffffffffffffffffffffffffffffffff1673ffffffffffffffffffffffffffffffffffffffff168152602001908152602001600020546040518082815260200191505060405180910390a36001905092915050565b60005b600954611e1c61340f565b1115611ee757611e39600554600f54612e2090919063ffffffff16565b90506040805190810160405280828152602001601154815250600b6000611e6c6001600954612dcc90919063ffffffff16565b81526020019081526020016000206000820151816000015560208201518160010155905050611ed0600360009054906101000a900473ffffffffffffffffffffffffffffffffffffffff16611ecb603284612da290919063ffffffff16565b612e41565b600960008154809291906001019190505550611e11565b50565b6000806000806000611efa6126dc565b1515611f0557600080fd5b611f0f8b8b61296c565b9350838d60405160200180836bffffffffffffffffffffffff19166bffffffffffffffffffffffff19168152601401828152602001925050506040516020818303038152906040526040518082805190602001908083835b602083101515611f8c5780518252602082019150602081019050602083039250611f67565b6001836020036101000a03801982511681845116808217855250505050505090500191505060405180910390209250611fc5838d61235c565b1515611fd057600080fd5b611fd8611e0e565b611fe06117bd565b611fed338c8b8b8b612705565b1515611ff857600080fd5b600f5461201083600554612dcc90919063ffffffff16565b1115151561201d57600080fd5b6120328d600554612dcc90919063ffffffff16565b600581905550600160086000856000191660001916815260200190815260200160002060006101000a81548160ff0219169083151502179055506120758d611ba9565b91509150612095336120908385612dcc90919063ffffffff16565b612e41565b6120c1600360009054906101000a900473ffffffffffffffffffffffffffffffffffffffff1682612e41565b6120d76001600654612dcc90919063ffffffff16565b6006819055503373ffffffffffffffffffffffffffffffffffffffff16600073ffffffffffffffffffffffffffffffffffffffff167fddf252ad1be2c89b69c2b068fc378daa952ba7f163c4a11628f55a4df523b3ef6121408486612dcc90919063ffffffff16565b6040518082815260200191505060405180910390a3600360009054906101000a900473ffffffffffffffffffffffffffffffffffffffff1673ffffffffffffffffffffffffffffffffffffffff16600073ffffffffffffffffffffffffffffffffffffffff167fddf252ad1be2c89b69c2b068fc378daa952ba7f163c4a11628f55a4df523b3ef836040518082815260200191505060405180910390a3600073ffffffffffffffffffffffffffffffffffffffff168673ffffffffffffffffffffffffffffffffffffffff1614151561225d5761221d8683612e41565b61225c600360009054906101000a900473ffffffffffffffffffffffffffffffffffffffff16612257601485612da290919063ffffffff16565b612e41565b5b6122708183612dcc90919063ffffffff16565b94505050505098975050505050505050565b60065481565b600073ffffffffffffffffffffffffffffffffffffffff826040518082805190602001908083835b6020831015156122d557805182526020820191506020810190506020830392506122b0565b6001836020036101000a038019825116818451168082178552505050505050905001915050604051809103902060019004169050919050565b60075481565b60008060008373ffffffffffffffffffffffffffffffffffffffff1673ffffffffffffffffffffffffffffffffffffffff168152602001908152602001600020549050919050565b600080151560086000856000191660001916815260200190815260200160002060009054906101000a900460ff16151514801561239f575061239e82846126ee565b5b905092915050565b6010602052816000526040600020818154811015156123c257fe5b9060005260206000209060040201600091509150508060000154908060010154908060020154908060030154905084565b60006124116011546124036117ad565b612dcc90919063ffffffff16565b905090565b6040805190810160405280600381526020017f424858000000000000000000000000000000000000000000000000000000000081525081565b6000806000905061245e6126dc565b156124835761248061247186868661341f565b82612dcc90919063ffffffff16565b90505b809150509392505050565b60008073ffffffffffffffffffffffffffffffffffffffff168373ffffffffffffffffffffffffffffffffffffffff16141515156124cb57600080fd5b61255a82600160003373ffffffffffffffffffffffffffffffffffffffff1673ffffffffffffffffffffffffffffffffffffffff16815260200190815260200160002060008673ffffffffffffffffffffffffffffffffffffffff1673ffffffffffffffffffffffffffffffffffffffff16815260200190815260200160002054612e2090919063ffffffff16565b600160003373ffffffffffffffffffffffffffffffffffffffff1673ffffffffffffffffffffffffffffffffffffffff16815260200190815260200160002060008573ffffffffffffffffffffffffffffffffffffffff1673ffffffffffffffffffffffffffffffffffffffff168152602001908152602001600020819055508273ffffffffffffffffffffffffffffffffffffffff163373ffffffffffffffffffffffffffffffffffffffff167f8c5be1e5ebec7d5bd14f71427d1e84f3dd0314c0f7b2291e5b200ac8c7c3b925600160003373ffffffffffffffffffffffffffffffffffffffff1673ffffffffffffffffffffffffffffffffffffffff16815260200190815260200160002060008773ffffffffffffffffffffffffffffffffffffffff1673ffffffffffffffffffffffffffffffffffffffff168152602001908152602001600020546040518082815260200191505060405180910390a36001905092915050565b60006126d2338484613145565b6001905092915050565b600060326126e861340f565b10905090565b60006126fd83600754846134e8565b905092915050565b6000612819600287604051602001808273ffffffffffffffffffffffffffffffffffffffff1673ffffffffffffffffffffffffffffffffffffffff166c010000000000000000000000000281526014019150506040516020818303038152906040526040518082805190602001908083835b60208310151561279c5780518252602082019150602081019050602083039250612777565b6001836020036101000a0380198251168184511680821785525050505050509050019150506020604051808303816000865af11580156127e0573d6000803e3d6000fd5b5050506040513d60208110156127f557600080fd5b81019080805190602001909291905050508585856128128a612288565b6000610f0a565b905095945050505050565b600080848460405160200180836bffffffffffffffffffffffff19166bffffffffffffffffffffffff19168152601401828152602001925050506040516020818303038152906040526040518082805190602001908083835b6020831015156128a2578051825260208201915060208101905060208303925061287d565b6001836020036101000a038019825116818451168082178552505050505050905001915050604051809103902090506128db818461235c565b9150509392505050565b6000600160008473ffffffffffffffffffffffffffffffffffffffff1673ffffffffffffffffffffffffffffffffffffffff16815260200190815260200160002060008373ffffffffffffffffffffffffffffffffffffffff1673ffffffffffffffffffffffffffffffffffffffff16815260200190815260200160002054905092915050565b60008060008061297d86600061368b565b60019004925061298e86602061368b565b6001900491508415612b6a5760006002838115156129a857fe5b06146129b55760036129b8565b60025b9050600360028285604051602001808360ff1660ff167f0100000000000000000000000000000000000000000000000000000000000000028152600101828152602001925050506040516020818303038152906040526040518082805190602001908083835b602083101515612a435780518252602082019150602081019050602083039250612a1e565b6001836020036101000a0380198251168184511680821785525050505050509050019150506020604051808303816000865af1158015612a87573d6000803e3d6000fd5b5050506040513d6020811015612a9c57600080fd5b81019080805190602001909291905050506040516020018082600019166000191681526020019150506040516020818303038152906040526040518082805190602001908083835b602083101515612b095780518252602082019150602081019050602083039250612ae4565b6001836020036101000a0380198251168184511680821785525050505050509050019150506020604051808303816000865af1158015612b4d573d6000803e3d6000fd5b505050604051516c01000000000000000000000000029350612d22565b6004905060036002828585604051602001808460ff1660ff167f010000000000000000000000000000000000000000000000000000000000000002815260010183815260200182815260200193505050506040516020818303038152906040526040518082805190602001908083835b602083101515612bff5780518252602082019150602081019050602083039250612bda565b6001836020036101000a0380198251168184511680821785525050505050509050019150506020604051808303816000865af1158015612c43573d6000803e3d6000fd5b5050506040513d6020811015612c5857600080fd5b81019080805190602001909291905050506040516020018082600019166000191681526020019150506040516020818303038152906040526040518082805190602001908083835b602083101515612cc55780518252602082019150602081019050602083039250612ca0565b6001836020036101000a0380198251168184511680821785525050505050509050019150506020604051808303816000865af1158015612d09573d6000803e3d6000fd5b505050604051516c010000000000000000000000000293505b50505092915050565b60055481565b6000612d5d620d2f00612d4f60045485612e2090919063ffffffff16565b612da290919063ffffffff16565b9050919050565b6000806000841415612d795760009150612d9b565b8284029050828482811515612d8a57fe5b04141515612d9757600080fd5b8091505b5092915050565b600080600083111515612db457600080fd5b8284811515612dbf57fe5b0490508091505092915050565b6000808284019050838110151515612de357600080fd5b8091505092915050565b6000612e1962093a80612e0b60045485612e2090919063ffffffff16565b612da290919063ffffffff16565b9050919050565b600080838311151515612e3257600080fd5b82840390508091505092915050565b60008273ffffffffffffffffffffffffffffffffffffffff1614151515612e6757600080fd5b612e7c81600254612dcc90919063ffffffff16565b600281905550612ed3816000808573ffffffffffffffffffffffffffffffffffffffff1673ffffffffffffffffffffffffffffffffffffffff16815260200190815260200160002054612dcc90919063ffffffff16565b6000808473ffffffffffffffffffffffffffffffffffffffff1673ffffffffffffffffffffffffffffffffffffffff168152602001908152602001600020819055508173ffffffffffffffffffffffffffffffffffffffff16600073ffffffffffffffffffffffffffffffffffffffff167fddf252ad1be2c89b69c2b068fc378daa952ba7f163c4a11628f55a4df523b3ef836040518082815260200191505060405180910390a35050565b60008273ffffffffffffffffffffffffffffffffffffffff1614151515612fa557600080fd5b6000808373ffffffffffffffffffffffffffffffffffffffff1673ffffffffffffffffffffffffffffffffffffffff168152602001908152602001600020548111151515612ff257600080fd5b61300781600254612e2090919063ffffffff16565b60028190555061305e816000808573ffffffffffffffffffffffffffffffffffffffff1673ffffffffffffffffffffffffffffffffffffffff16815260200190815260200160002054612e2090919063ffffffff16565b6000808473ffffffffffffffffffffffffffffffffffffffff1673ffffffffffffffffffffffffffffffffffffffff16815260200190815260200160002081905550600073ffffffffffffffffffffffffffffffffffffffff168273ffffffffffffffffffffffffffffffffffffffff167fddf252ad1be2c89b69c2b068fc378daa952ba7f163c4a11628f55a4df523b3ef836040518082815260200191505060405180910390a35050565b600061311542612d31565b905090565b6000806131256117ad565b9050600f546131326117ad565b101561313e57600f5490505b8091505090565b6000808473ffffffffffffffffffffffffffffffffffffffff1673ffffffffffffffffffffffffffffffffffffffff16815260200190815260200160002054811115151561319257600080fd5b600073ffffffffffffffffffffffffffffffffffffffff168273ffffffffffffffffffffffffffffffffffffffff16141515156131ce57600080fd5b61321f816000808673ffffffffffffffffffffffffffffffffffffffff1673ffffffffffffffffffffffffffffffffffffffff16815260200190815260200160002054612e2090919063ffffffff16565b6000808573ffffffffffffffffffffffffffffffffffffffff1673ffffffffffffffffffffffffffffffffffffffff168152602001908152602001600020819055506132b2816000808573ffffffffffffffffffffffffffffffffffffffff1673ffffffffffffffffffffffffffffffffffffffff16815260200190815260200160002054612dcc90919063ffffffff16565b6000808473ffffffffffffffffffffffffffffffffffffffff1673ffffffffffffffffffffffffffffffffffffffff168152602001908152602001600020819055508173ffffffffffffffffffffffffffffffffffffffff168373ffffffffffffffffffffffffffffffffffffffff167fddf252ad1be2c89b69c2b068fc378daa952ba7f163c4a11628f55a4df523b3ef836040518082815260200191505060405180910390a3505050565b60006133a06064613392613383600261337561340f565b612d6490919063ffffffff16565b85612d6490919063ffffffff16565b612da290919063ffffffff16565b9050919050565b6000806000606491506133dd6133ce60026133c061340f565b612d6490919063ffffffff16565b83612e2090919063ffffffff16565b90506134066103e86133f88387612d6490919063ffffffff16565b612da290919063ffffffff16565b92505050919050565b600061341a42612ded565b905090565b600080600080600080600080600096506134388a612ded565b955060008614613448578561344b565b60015b945061345689612ded565b9350603284116134665783613469565b60325b92508491505b828210156134d7576134b360326134a58d600b600087815260200190815260200160002060000154612d6490919063ffffffff16565b612da290919063ffffffff16565b90506134c88188612dcc90919063ffffffff16565b9650818060010192505061346f565b869750505050505050509392505050565b600080600080849250600091505b865182101561367457868281518110151561350d57fe5b9060200190602002015190508060001916836000191610156135ca5782816040516020018083600019166000191681526020018260001916600019168152602001925050506040516020818303038152906040526040518082805190602001908083835b6020831015156135965780518252602082019150602081019050602083039250613571565b6001836020036101000a03801982511681845116808217855250505050505090500191505060405180910390209250613667565b80836040516020018083600019166000191681526020018260001916600019168152602001925050506040516020818303038152906040526040518082805190602001908083835b6020831015156136375780518252602082019150602081019050602083039250613612565b6001836020036101000a038019825116818451168082178552505050505050905001915050604051809103902092505b81806001019250506134f6565b856000191683600019161493505050509392505050565b60008060008090505b602081101561375e5760088102858583018151811015156136b157fe5b9060200101517f010000000000000000000000000000000000000000000000000000000000000090047f0100000000000000000000000000000000000000000000000000000000000000027effffffffffffffffffffffffffffffffffffffffffffffffffffffffffffff19167fff0000000000000000000000000000000000000000000000000000000000000060010216600019169060020a9004821891508080600101915050613694565b8192505050929150505600a165627a7a723058207daee253b20e3f2e2c33f55263ed3a7c6fcba253d2427922c6ab3201f458bd170029",
  "source": "pragma solidity ^0.4.24;\n\nimport \"./StakeableToken.sol\";\n\ncontract BitcoinHex is StakeableToken {\n  constructor (\n    address _originAddress,\n    bytes32 _rootUtxoMerkleTreeHash,\n    uint256 _maximumRedeemable,\n    uint256 _UTXOCountAtFork\n  ) public {\n    launchTime = block.timestamp;\n    origin = _originAddress;\n    rootUtxoMerkleTreeHash = _rootUtxoMerkleTreeHash;\n    maximumRedeemable = _maximumRedeemable;\n    UTXOCountAtFork = _UTXOCountAtFork;\n  }\n}\n",
  "sourcePath": "/Users/mesquka/Git/Bitcoin Hex/contract/contracts/BitcoinHex.sol",
  "compiler": {
    "name": "solc",
    "version": "0.4.24+commit.e67f0147.Emscripten.clang"
  },
  "schemaVersion": "2.0.1",
  "updatedAt": "2018-11-04T16:59:58.438Z"
}