{
  "contractName": "GlobalsAndUtility",
  "abi": [
    {
      "constant": true,
      "inputs": [],
      "name": "name",
      "outputs": [
        {
          "name": "",
          "type": "string"
        }
      ],
      "payable": false,
      "stateMutability": "view",
      "type": "function"
    },
    {
      "constant": false,
      "inputs": [
        {
          "name": "spender",
          "type": "address"
        },
        {
          "name": "value",
          "type": "uint256"
        }
      ],
      "name": "approve",
      "outputs": [
        {
          "name": "",
          "type": "bool"
        }
      ],
      "payable": false,
      "stateMutability": "nonpayable",
      "type": "function"
    },
    {
      "constant": true,
      "inputs": [],
      "name": "totalStakedCoins",
      "outputs": [
        {
          "name": "",
          "type": "uint256"
        }
      ],
      "payable": false,
      "stateMutability": "view",
      "type": "function"
    },
    {
      "constant": true,
      "inputs": [],
      "name": "totalSupply",
      "outputs": [
        {
          "name": "",
          "type": "uint256"
        }
      ],
      "payable": false,
      "stateMutability": "view",
      "type": "function"
    },
    {
      "constant": true,
      "inputs": [],
      "name": "totalStakeShares",
      "outputs": [
        {
          "name": "",
          "type": "uint256"
        }
      ],
      "payable": false,
      "stateMutability": "view",
      "type": "function"
    },
    {
      "constant": false,
      "inputs": [
        {
          "name": "from",
          "type": "address"
        },
        {
          "name": "to",
          "type": "address"
        },
        {
          "name": "value",
          "type": "uint256"
        }
      ],
      "name": "transferFrom",
      "outputs": [
        {
          "name": "",
          "type": "bool"
        }
      ],
      "payable": false,
      "stateMutability": "nonpayable",
      "type": "function"
    },
    {
      "constant": true,
      "inputs": [],
      "name": "decimals",
      "outputs": [
        {
          "name": "",
          "type": "uint256"
        }
      ],
      "payable": false,
      "stateMutability": "view",
      "type": "function"
    },
    {
      "constant": false,
      "inputs": [
        {
          "name": "spender",
          "type": "address"
        },
        {
          "name": "addedValue",
          "type": "uint256"
        }
      ],
      "name": "increaseAllowance",
      "outputs": [
        {
          "name": "",
          "type": "bool"
        }
      ],
      "payable": false,
      "stateMutability": "nonpayable",
      "type": "function"
    },
    {
      "constant": true,
      "inputs": [],
      "name": "redeemedCount",
      "outputs": [
        {
          "name": "",
          "type": "uint256"
        }
      ],
      "payable": false,
      "stateMutability": "view",
      "type": "function"
    },
    {
      "constant": true,
      "inputs": [],
      "name": "rootUtxoMerkleTreeHash",
      "outputs": [
        {
          "name": "",
          "type": "bytes32"
        }
      ],
      "payable": false,
      "stateMutability": "view",
      "type": "function"
    },
    {
      "constant": true,
      "inputs": [
        {
          "name": "owner",
          "type": "address"
        }
      ],
      "name": "balanceOf",
      "outputs": [
        {
          "name": "",
          "type": "uint256"
        }
      ],
      "payable": false,
      "stateMutability": "view",
      "type": "function"
    },
    {
      "constant": true,
      "inputs": [
        {
          "name": "",
          "type": "address"
        },
        {
          "name": "",
          "type": "uint256"
        }
      ],
      "name": "staked",
      "outputs": [
        {
          "name": "amount",
          "type": "uint256"
        },
        {
          "name": "stakeShares",
          "type": "uint256"
        },
        {
          "name": "stakeTime",
          "type": "uint256"
        },
        {
          "name": "unlockTime",
          "type": "uint256"
        }
      ],
      "payable": false,
      "stateMutability": "view",
      "type": "function"
    },
    {
      "constant": true,
      "inputs": [],
      "name": "symbol",
      "outputs": [
        {
          "name": "",
          "type": "string"
        }
      ],
      "payable": false,
      "stateMutability": "view",
      "type": "function"
    },
    {
      "constant": false,
      "inputs": [
        {
          "name": "spender",
          "type": "address"
        },
        {
          "name": "subtractedValue",
          "type": "uint256"
        }
      ],
      "name": "decreaseAllowance",
      "outputs": [
        {
          "name": "",
          "type": "bool"
        }
      ],
      "payable": false,
      "stateMutability": "nonpayable",
      "type": "function"
    },
    {
      "constant": false,
      "inputs": [
        {
          "name": "to",
          "type": "address"
        },
        {
          "name": "value",
          "type": "uint256"
        }
      ],
      "name": "transfer",
      "outputs": [
        {
          "name": "",
          "type": "bool"
        }
      ],
      "payable": false,
      "stateMutability": "nonpayable",
      "type": "function"
    },
    {
      "constant": true,
      "inputs": [
        {
          "name": "owner",
          "type": "address"
        },
        {
          "name": "spender",
          "type": "address"
        }
      ],
      "name": "allowance",
      "outputs": [
        {
          "name": "",
          "type": "uint256"
        }
      ],
      "payable": false,
      "stateMutability": "view",
      "type": "function"
    },
    {
      "constant": true,
      "inputs": [],
      "name": "totalRedeemed",
      "outputs": [
        {
          "name": "",
          "type": "uint256"
        }
      ],
      "payable": false,
      "stateMutability": "view",
      "type": "function"
    },
    {
      "anonymous": false,
      "inputs": [
        {
          "indexed": true,
          "name": "from",
          "type": "address"
        },
        {
          "indexed": true,
          "name": "to",
          "type": "address"
        },
        {
          "indexed": false,
          "name": "value",
          "type": "uint256"
        }
      ],
      "name": "Transfer",
      "type": "event"
    },
    {
      "anonymous": false,
      "inputs": [
        {
          "indexed": true,
          "name": "owner",
          "type": "address"
        },
        {
          "indexed": true,
          "name": "spender",
          "type": "address"
        },
        {
          "indexed": false,
          "name": "value",
          "type": "uint256"
        }
      ],
      "name": "Approval",
      "type": "event"
    },
    {
      "constant": true,
      "inputs": [],
      "name": "isClaimsPeriod",
      "outputs": [
        {
          "name": "",
          "type": "bool"
        }
      ],
      "payable": false,
      "stateMutability": "view",
      "type": "function"
    },
    {
      "constant": false,
      "inputs": [],
      "name": "storeWeeklyData",
      "outputs": [],
      "payable": false,
      "stateMutability": "nonpayable",
      "type": "function"
    },
    {
      "constant": false,
      "inputs": [],
      "name": "storePeriodData",
      "outputs": [],
      "payable": false,
      "stateMutability": "nonpayable",
      "type": "function"
    },
    {
      "constant": true,
      "inputs": [],
      "name": "geTrueSupply",
      "outputs": [
        {
          "name": "",
          "type": "uint256"
        }
      ],
      "payable": false,
      "stateMutability": "view",
      "type": "function"
    }
  ],
  "bytecode": "0x60806040526000600555600060065534801561001a57600080fd5b506118a38061002a6000396000f30060806040526004361061011d576000357c0100000000000000000000000000000000000000000000000000000000900463ffffffff16806306fdde0314610122578063095ea7b3146101b25780631765f4bf1461021757806318160ddd146102425780631aa024b71461026d5780631ee752701461029857806323b872dd146102af578063313ce56714610334578063395093511461035f5780634d3c8bc8146103c457806352aa3e6c146103db5780636aaf67e21461040657806370a08231146104395780638f169816146104905780638f903a551461050657806395d89b4114610531578063a457c2d7146105c1578063a9059cbb14610626578063adf71f1f1461068b578063dd62ed3e146106ba578063f35dad4014610731575b600080fd5b34801561012e57600080fd5b5061013761075c565b6040518080602001828103825283818151815260200191508051906020019080838360005b8381101561017757808201518184015260208101905061015c565b50505050905090810190601f1680156101a45780820380516001836020036101000a031916815260200191505b509250505060405180910390f35b3480156101be57600080fd5b506101fd600480360381019080803573ffffffffffffffffffffffffffffffffffffffff16906020019092919080359060200190929190505050610795565b604051808215151515815260200191505060405180910390f35b34801561022357600080fd5b5061022c6108c2565b6040518082815260200191505060405180910390f35b34801561024e57600080fd5b506102576108c8565b6040518082815260200191505060405180910390f35b34801561027957600080fd5b506102826108d2565b6040518082815260200191505060405180910390f35b3480156102a457600080fd5b506102ad6108d8565b005b3480156102bb57600080fd5b5061031a600480360381019080803573ffffffffffffffffffffffffffffffffffffffff169060200190929190803573ffffffffffffffffffffffffffffffffffffffff16906020019092919080359060200190929190505050610b12565b604051808215151515815260200191505060405180910390f35b34801561034057600080fd5b50610349610cc4565b6040518082815260200191505060405180910390f35b34801561036b57600080fd5b506103aa600480360381019080803573ffffffffffffffffffffffffffffffffffffffff16906020019092919080359060200190929190505050610cc9565b604051808215151515815260200191505060405180910390f35b3480156103d057600080fd5b506103d9610f00565b005b3480156103e757600080fd5b506103f0610fdc565b6040518082815260200191505060405180910390f35b34801561041257600080fd5b5061041b610fe2565b60405180826000191660001916815260200191505060405180910390f35b34801561044557600080fd5b5061047a600480360381019080803573ffffffffffffffffffffffffffffffffffffffff169060200190929190505050610fe8565b6040518082815260200191505060405180910390f35b34801561049c57600080fd5b506104db600480360381019080803573ffffffffffffffffffffffffffffffffffffffff16906020019092919080359060200190929190505050611030565b6040518085815260200184815260200183815260200182815260200194505050505060405180910390f35b34801561051257600080fd5b5061051b61107c565b6040518082815260200191505060405180910390f35b34801561053d57600080fd5b5061054661109f565b6040518080602001828103825283818151815260200191508051906020019080838360005b8381101561058657808201518184015260208101905061056b565b50505050905090810190601f1680156105b35780820380516001836020036101000a031916815260200191505b509250505060405180910390f35b3480156105cd57600080fd5b5061060c600480360381019080803573ffffffffffffffffffffffffffffffffffffffff169060200190929190803590602001909291905050506110d8565b604051808215151515815260200191505060405180910390f35b34801561063257600080fd5b50610671600480360381019080803573ffffffffffffffffffffffffffffffffffffffff1690602001909291908035906020019092919050505061130f565b604051808215151515815260200191505060405180910390f35b34801561069757600080fd5b506106a0611326565b604051808215151515815260200191505060405180910390f35b3480156106c657600080fd5b5061071b600480360381019080803573ffffffffffffffffffffffffffffffffffffffff169060200190929190803573ffffffffffffffffffffffffffffffffffffffff169060200190929190505050611338565b6040518082815260200191505060405180910390f35b34801561073d57600080fd5b506107466113bf565b6040518082815260200191505060405180910390f35b6040805190810160405280600a81526020017f426974636f696e4865780000000000000000000000000000000000000000000081525081565b60008073ffffffffffffffffffffffffffffffffffffffff168373ffffffffffffffffffffffffffffffffffffffff16141515156107d257600080fd5b81600160003373ffffffffffffffffffffffffffffffffffffffff1673ffffffffffffffffffffffffffffffffffffffff16815260200190815260200160002060008573ffffffffffffffffffffffffffffffffffffffff1673ffffffffffffffffffffffffffffffffffffffff168152602001908152602001600020819055508273ffffffffffffffffffffffffffffffffffffffff163373ffffffffffffffffffffffffffffffffffffffff167f8c5be1e5ebec7d5bd14f71427d1e84f3dd0314c0f7b2291e5b200ac8c7c3b925846040518082815260200191505060405180910390a36001905092915050565b60115481565b6000600254905090565b60125481565b60005b600a546108e66113c5565b1115610b0f576109086104166108fa6113d5565b61140090919063ffffffff16565b9050610912611326565b15610a83576109b2610956600a610948600f5461093a6005548761142a90919063ffffffff16565b61140090919063ffffffff16565b61140090919063ffffffff16565b6109a4610995600a610987600e546109796006548961142a90919063ffffffff16565b61140090919063ffffffff16565b61140090919063ffffffff16565b8461146890919063ffffffff16565b61146890919063ffffffff16565b9050610a1b600360009054906101000a900473ffffffffffffffffffffffffffffffffffffffff16610a16600a610a08600e546109fa6006548861142a90919063ffffffff16565b61140090919063ffffffff16565b61140090919063ffffffff16565b611489565b610a82600360009054906101000a900473ffffffffffffffffffffffffffffffffffffffff16610a7d600a610a6f600f54610a616005548861142a90919063ffffffff16565b61140090919063ffffffff16565b61140090919063ffffffff16565b611489565b5b610a98600c548261146890919063ffffffff16565b90506000600c819055506040805190810160405280828152602001601154815250600d6000610ad36001600a5461146890919063ffffffff16565b81526020019081526020016000206000820151816000015560208201518160010155905050600a600081548092919060010191905055506108db565b50565b6000600160008573ffffffffffffffffffffffffffffffffffffffff1673ffffffffffffffffffffffffffffffffffffffff16815260200190815260200160002060003373ffffffffffffffffffffffffffffffffffffffff1673ffffffffffffffffffffffffffffffffffffffff168152602001908152602001600020548211151515610b9f57600080fd5b610c2e82600160008773ffffffffffffffffffffffffffffffffffffffff1673ffffffffffffffffffffffffffffffffffffffff16815260200190815260200160002060003373ffffffffffffffffffffffffffffffffffffffff1673ffffffffffffffffffffffffffffffffffffffff168152602001908152602001600020546115c790919063ffffffff16565b600160008673ffffffffffffffffffffffffffffffffffffffff1673ffffffffffffffffffffffffffffffffffffffff16815260200190815260200160002060003373ffffffffffffffffffffffffffffffffffffffff1673ffffffffffffffffffffffffffffffffffffffff16815260200190815260200160002081905550610cb98484846115e8565b600190509392505050565b600881565b60008073ffffffffffffffffffffffffffffffffffffffff168373ffffffffffffffffffffffffffffffffffffffff1614151515610d0657600080fd5b610d9582600160003373ffffffffffffffffffffffffffffffffffffffff1673ffffffffffffffffffffffffffffffffffffffff16815260200190815260200160002060008673ffffffffffffffffffffffffffffffffffffffff1673ffffffffffffffffffffffffffffffffffffffff1681526020019081526020016000205461146890919063ffffffff16565b600160003373ffffffffffffffffffffffffffffffffffffffff1673ffffffffffffffffffffffffffffffffffffffff16815260200190815260200160002060008573ffffffffffffffffffffffffffffffffffffffff1673ffffffffffffffffffffffffffffffffffffffff168152602001908152602001600020819055508273ffffffffffffffffffffffffffffffffffffffff163373ffffffffffffffffffffffffffffffffffffffff167f8c5be1e5ebec7d5bd14f71427d1e84f3dd0314c0f7b2291e5b200ac8c7c3b925600160003373ffffffffffffffffffffffffffffffffffffffff1673ffffffffffffffffffffffffffffffffffffffff16815260200190815260200160002060008773ffffffffffffffffffffffffffffffffffffffff1673ffffffffffffffffffffffffffffffffffffffff168152602001908152602001600020546040518082815260200191505060405180910390a36001905092915050565b60005b600954610f0e611801565b1115610fd957610f2b600554600f546115c790919063ffffffff16565b90506040805190810160405280828152602001601154815250600b6000610f5e600160095461146890919063ffffffff16565b81526020019081526020016000206000820151816000015560208201518160010155905050610fc2600360009054906101000a900473ffffffffffffffffffffffffffffffffffffffff16610fbd60328461140090919063ffffffff16565b611489565b600960008154809291906001019190505550610f03565b50565b60065481565b60075481565b60008060008373ffffffffffffffffffffffffffffffffffffffff1673ffffffffffffffffffffffffffffffffffffffff168152602001908152602001600020549050919050565b60106020528160005260406000208181548110151561104b57fe5b9060005260206000209060040201600091509150508060000154908060010154908060020154908060030154905084565b600061109a60115461108c6108c8565b61146890919063ffffffff16565b905090565b6040805190810160405280600381526020017f424858000000000000000000000000000000000000000000000000000000000081525081565b60008073ffffffffffffffffffffffffffffffffffffffff168373ffffffffffffffffffffffffffffffffffffffff161415151561111557600080fd5b6111a482600160003373ffffffffffffffffffffffffffffffffffffffff1673ffffffffffffffffffffffffffffffffffffffff16815260200190815260200160002060008673ffffffffffffffffffffffffffffffffffffffff1673ffffffffffffffffffffffffffffffffffffffff168152602001908152602001600020546115c790919063ffffffff16565b600160003373ffffffffffffffffffffffffffffffffffffffff1673ffffffffffffffffffffffffffffffffffffffff16815260200190815260200160002060008573ffffffffffffffffffffffffffffffffffffffff1673ffffffffffffffffffffffffffffffffffffffff168152602001908152602001600020819055508273ffffffffffffffffffffffffffffffffffffffff163373ffffffffffffffffffffffffffffffffffffffff167f8c5be1e5ebec7d5bd14f71427d1e84f3dd0314c0f7b2291e5b200ac8c7c3b925600160003373ffffffffffffffffffffffffffffffffffffffff1673ffffffffffffffffffffffffffffffffffffffff16815260200190815260200160002060008773ffffffffffffffffffffffffffffffffffffffff1673ffffffffffffffffffffffffffffffffffffffff168152602001908152602001600020546040518082815260200191505060405180910390a36001905092915050565b600061131c3384846115e8565b6001905092915050565b60006032611332611801565b10905090565b6000600160008473ffffffffffffffffffffffffffffffffffffffff1673ffffffffffffffffffffffffffffffffffffffff16815260200190815260200160002060008373ffffffffffffffffffffffffffffffffffffffff1673ffffffffffffffffffffffffffffffffffffffff16815260200190815260200160002054905092915050565b60055481565b60006113d042611811565b905090565b6000806113e06108c8565b9050600f546113ed6108c8565b10156113f957600f5490505b8091505090565b60008060008311151561141257600080fd5b828481151561141d57fe5b0490508091505092915050565b600080600084141561143f5760009150611461565b828402905082848281151561145057fe5b0414151561145d57600080fd5b8091505b5092915050565b600080828401905083811015151561147f57600080fd5b8091505092915050565b60008273ffffffffffffffffffffffffffffffffffffffff16141515156114af57600080fd5b6114c48160025461146890919063ffffffff16565b60028190555061151b816000808573ffffffffffffffffffffffffffffffffffffffff1673ffffffffffffffffffffffffffffffffffffffff1681526020019081526020016000205461146890919063ffffffff16565b6000808473ffffffffffffffffffffffffffffffffffffffff1673ffffffffffffffffffffffffffffffffffffffff168152602001908152602001600020819055508173ffffffffffffffffffffffffffffffffffffffff16600073ffffffffffffffffffffffffffffffffffffffff167fddf252ad1be2c89b69c2b068fc378daa952ba7f163c4a11628f55a4df523b3ef836040518082815260200191505060405180910390a35050565b6000808383111515156115d957600080fd5b82840390508091505092915050565b6000808473ffffffffffffffffffffffffffffffffffffffff1673ffffffffffffffffffffffffffffffffffffffff16815260200190815260200160002054811115151561163557600080fd5b600073ffffffffffffffffffffffffffffffffffffffff168273ffffffffffffffffffffffffffffffffffffffff161415151561167157600080fd5b6116c2816000808673ffffffffffffffffffffffffffffffffffffffff1673ffffffffffffffffffffffffffffffffffffffff168152602001908152602001600020546115c790919063ffffffff16565b6000808573ffffffffffffffffffffffffffffffffffffffff1673ffffffffffffffffffffffffffffffffffffffff16815260200190815260200160002081905550611755816000808573ffffffffffffffffffffffffffffffffffffffff1673ffffffffffffffffffffffffffffffffffffffff1681526020019081526020016000205461146890919063ffffffff16565b6000808473ffffffffffffffffffffffffffffffffffffffff1673ffffffffffffffffffffffffffffffffffffffff168152602001908152602001600020819055508173ffffffffffffffffffffffffffffffffffffffff168373ffffffffffffffffffffffffffffffffffffffff167fddf252ad1be2c89b69c2b068fc378daa952ba7f163c4a11628f55a4df523b3ef836040518082815260200191505060405180910390a3505050565b600061180c42611844565b905090565b600061183d620d2f0061182f600454856115c790919063ffffffff16565b61140090919063ffffffff16565b9050919050565b600061187062093a80611862600454856115c790919063ffffffff16565b61140090919063ffffffff16565b90509190505600a165627a7a72305820de5c15012057b0a3617e6ca7b0f20a2271fbccb0fa34b34b42fa12d66a76614c0029",
  "source": "pragma solidity ^0.4.24;\n\nimport \"../node_modules/openzeppelin-solidity/contracts/token/ERC20/ERC20.sol\";\nimport \"../node_modules/openzeppelin-solidity/contracts/math/SafeMath.sol\";\n\ncontract GlobalsAndUtility is ERC20 {\n  using SafeMath for uint256;\n  \n  /* Origin Address */\n  address internal origin;\n\n  /* ERC20 Constants */\n  string public constant name = \"BitcoinHex\"; \n  string public constant symbol = \"BHX\";\n  uint public constant decimals = 8;\n\n  /* Store time of launch for contract */\n  uint256 internal launchTime;\n\n  /* Total tokens redeemed so far. */\n  uint256 public totalRedeemed = 0;\n  uint256 public redeemedCount = 0;\n\n  /* Root hash of the UTXO Merkle tree */\n  bytes32 public rootUtxoMerkleTreeHash;\n\n  /* Redeemed UTXOs. */\n  mapping(bytes32 => bool) internal redeemedUTXOs;\n\n  /* Store last week storeWeeklyData() ran */\n  uint256 internal lastUpdatedWeek;\n\n  /* Store last period storePeriodData() ran */\n  uint256 internal lastUpdatedPeriod;\n\n  /* Weekly data */\n  struct WeeklyDataStuct {\n    uint256 unclaimedCoins;\n    uint256 totalStaked;\n  }\n  mapping(uint256 => WeeklyDataStuct) internal weeklyData;\n\n  /* Accumulated Emergency unstake pool to go into next period pool */\n  uint256 internal emergencyUnstakePool;\n\n  /* Period data */\n  struct PeriodDataStuct {\n    uint256 payoutRoundAmount;\n    uint256 totalStakeShares;\n  }\n  mapping(uint256 => PeriodDataStuct) internal periodData;\n\n  /* Total number of UTXO's at fork */\n  uint256 internal UTXOCountAtFork;\n\n  /* Maximum redeemable coins at fork */\n  uint256 internal maximumRedeemable;\n\n  /* Stakes Storage */\n  struct StakeStruct {\n    uint256 amount;\n    uint256 stakeShares;\n    uint256 stakeTime;\n    uint256 unlockTime;\n  }\n  mapping(address => StakeStruct[]) public staked;\n  uint256 public totalStakedCoins;\n  uint256 public totalStakeShares;\n  uint256 internal constant maxStakingTime = 365 days * 10; // Solidity automatically converts 'days' to seconds\n  uint256 internal constant oneInterestPeriod = 10 days; // Solidity automatically converts 'days' to seconds\n\n  /**\n   * @dev Calculates maximum of Total Supply and MaxRedeemable, this is to keep calculations in the early rounds sane\n   * @return Maximum of Total Supply and MaxRedeemable\n   */\n  function maxOfTotalSupplyVSMaxRedeemable() internal view returns (uint256) {\n    uint256 _maxOfTotalSupplyVSMaxRedeemable = totalSupply();\n    if (totalSupply() < maximumRedeemable) {\n      _maxOfTotalSupplyVSMaxRedeemable = maximumRedeemable;\n    }\n    return _maxOfTotalSupplyVSMaxRedeemable;\n  }\n\n  /** \n    @dev Moves last item in array to location of item to be removed,\n    overwriting array item. Shortens array length by 1, removing now\n    duplicate item at end of array.\n    @param _staker staker address for accessing array\n    @param _stakeIndex index of the item to delete\n  */\n  function removeStake(\n    address _staker,\n    uint256 _stakeIndex\n  ) internal {\n    StakeStruct[] storage _stakedArray = staked[_staker];\n    \n    /* set last item to index of item we want to get rid of */\n    _stakedArray[_stakeIndex] = _stakedArray[_stakedArray.length.sub(1)];\n\n    /* Remove last item in array now that safely copied to index of deleted item */\n    _stakedArray.length = _stakedArray.length.sub(1);\n  }\n\n  /**\n   * @dev Converts timestamp to number of weeks into contract\n   * @param _timestamp timestamp to convert\n   * @return number of weeks into contract\n   */\n  function timestampToWeeks(\n    uint256 _timestamp\n  ) internal view returns (uint256) {\n    return (_timestamp.sub(launchTime).div(7 days));\n  }\n\n  /**\n   * @dev Checks number of weeks since launch of contract\n   * @return number of weeks since launch\n   */\n  function weeksSinceLaunch() internal view returns (uint256) {\n    return (timestampToWeeks(block.timestamp));\n  }\n\n  /**\n   * @dev Converts timestamp to number of periods into contract\n   * @param _timestamp timestamp to convert\n   * @return number of periods into contract\n   */\n  function timestampToPeriods(\n    uint256 _timestamp\n  ) internal view returns (uint256) {\n    return (_timestamp.sub(launchTime).div(10 days));\n  }\n\n  /**\n  * @dev Checks number of periods since launch of contract\n  * @return number of periods since launch\n  */\n  function periodsSinceLaunch() internal view returns (uint256) {\n    return (timestampToPeriods(block.timestamp));\n  }\n\n  /**\n   * @dev PUBLIC FACING: Checks if we're still in claims period\n   * @return true/false is in claims period\n   */\n  function isClaimsPeriod() public view returns (bool) {\n    return (weeksSinceLaunch() < 50);\n  }\n\n  /**\n   * @dev PUBLIC FACING: Store weekly coin data\n   */\n  function storeWeeklyData() public {\n    for (lastUpdatedWeek; weeksSinceLaunch() > lastUpdatedWeek; lastUpdatedWeek++) {\n      uint256 _unclaimedCoins = maximumRedeemable.sub(totalRedeemed);\n      weeklyData[lastUpdatedWeek.add(1)] = WeeklyDataStuct(\n          _unclaimedCoins,\n          totalStakedCoins\n      );\n      _mint(origin, _unclaimedCoins.div(50));\n    }\n  }\n\n  /**\n   * @dev PUBLIC FACING: Store period coin data\n   */\n  function storePeriodData() public {\n    for (lastUpdatedPeriod; periodsSinceLaunch() > lastUpdatedPeriod; lastUpdatedPeriod++) {\n\n      /* Calculate payout round */\n      uint256 _payoutRound = maxOfTotalSupplyVSMaxRedeemable().div(1046); // Gives approximately 0.09561% inflation per period, which equals 3.5% per year inflation\n\n      /* Calculate Viral and Crit rewards */\n      if (isClaimsPeriod()) {\n        _payoutRound = _payoutRound.add(\n          /* VIRAL REWARDS: Add bonus percentage to _rewards from 0-10% based on adoption */\n          _payoutRound.mul(redeemedCount).div(UTXOCountAtFork).div(10)\n        ).add (\n          /* CRIT MASS REWARDS: Add bonus percentage to _rewards from 0-10% based on adoption */\n          _payoutRound.mul(totalRedeemed).div(maximumRedeemable).div(10)\n        );\n\n        /* Pay crit and viral to origin */\n        _mint(origin, _payoutRound.mul(redeemedCount).div(UTXOCountAtFork).div(10)); // VIRAL\n        _mint(origin, _payoutRound.mul(totalRedeemed).div(maximumRedeemable).div(10)); // CRIT\n      }\n\n      /* Add emergency unstake pool to payout round */\n      _payoutRound = _payoutRound.add(emergencyUnstakePool);\n      emergencyUnstakePool = 0;\n\n      /* Store data */\n      periodData[lastUpdatedPeriod.add(1)] = PeriodDataStuct(\n          _payoutRound,\n          totalStakedCoins\n      );\n    }\n  }\n\n  /**\n   * @dev PUBLIC FACING: A convenience function to get supply and staked (true supply).\n   * @return True Supply\n  */\n  function geTrueSupply() public view returns (uint256) {\n    return totalSupply().add(totalStakedCoins);\n  }\n}",
  "sourcePath": "/Users/mesquka/Git/Bitcoin Hex/contract/contracts/GlobalsAndUtility.sol",
  "compiler": {
    "name": "solc",
    "version": "0.4.24+commit.e67f0147.Emscripten.clang"
  },
  "schemaVersion": "2.0.1",
  "updatedAt": "2018-11-04T20:26:44.131Z"
}