{
  "contractName": "UTXORedeemableToken",
  "abi": [
    {
      "constant": true,
      "inputs": [],
      "name": "name",
      "outputs": [
        {
          "name": "",
          "type": "string"
        }
      ],
      "payable": false,
      "stateMutability": "view",
      "type": "function"
    },
    {
      "constant": true,
      "inputs": [
        {
          "name": "_hash",
          "type": "bytes32"
        },
        {
          "name": "_v",
          "type": "uint8"
        },
        {
          "name": "_r",
          "type": "bytes32"
        },
        {
          "name": "_s",
          "type": "bytes32"
        },
        {
          "name": "_expected",
          "type": "address"
        },
        {
          "name": "_addPrefix",
          "type": "bool"
        }
      ],
      "name": "validateSignature",
      "outputs": [
        {
          "name": "",
          "type": "bool"
        }
      ],
      "payable": false,
      "stateMutability": "pure",
      "type": "function"
    },
    {
      "constant": false,
      "inputs": [
        {
          "name": "spender",
          "type": "address"
        },
        {
          "name": "value",
          "type": "uint256"
        }
      ],
      "name": "approve",
      "outputs": [
        {
          "name": "",
          "type": "bool"
        }
      ],
      "payable": false,
      "stateMutability": "nonpayable",
      "type": "function"
    },
    {
      "constant": true,
      "inputs": [],
      "name": "totalStakedCoins",
      "outputs": [
        {
          "name": "",
          "type": "uint256"
        }
      ],
      "payable": false,
      "stateMutability": "view",
      "type": "function"
    },
    {
      "constant": true,
      "inputs": [],
      "name": "totalSupply",
      "outputs": [
        {
          "name": "",
          "type": "uint256"
        }
      ],
      "payable": false,
      "stateMutability": "view",
      "type": "function"
    },
    {
      "constant": true,
      "inputs": [],
      "name": "totalStakeShares",
      "outputs": [
        {
          "name": "",
          "type": "uint256"
        }
      ],
      "payable": false,
      "stateMutability": "view",
      "type": "function"
    },
    {
      "constant": false,
      "inputs": [],
      "name": "storePeriodData",
      "outputs": [],
      "payable": false,
      "stateMutability": "nonpayable",
      "type": "function"
    },
    {
      "constant": false,
      "inputs": [
        {
          "name": "from",
          "type": "address"
        },
        {
          "name": "to",
          "type": "address"
        },
        {
          "name": "value",
          "type": "uint256"
        }
      ],
      "name": "transferFrom",
      "outputs": [
        {
          "name": "",
          "type": "bool"
        }
      ],
      "payable": false,
      "stateMutability": "nonpayable",
      "type": "function"
    },
    {
      "constant": true,
      "inputs": [],
      "name": "decimals",
      "outputs": [
        {
          "name": "",
          "type": "uint256"
        }
      ],
      "payable": false,
      "stateMutability": "view",
      "type": "function"
    },
    {
      "constant": false,
      "inputs": [
        {
          "name": "spender",
          "type": "address"
        },
        {
          "name": "addedValue",
          "type": "uint256"
        }
      ],
      "name": "increaseAllowance",
      "outputs": [
        {
          "name": "",
          "type": "bool"
        }
      ],
      "payable": false,
      "stateMutability": "nonpayable",
      "type": "function"
    },
    {
      "constant": false,
      "inputs": [],
      "name": "storeWeeklyData",
      "outputs": [],
      "payable": false,
      "stateMutability": "nonpayable",
      "type": "function"
    },
    {
      "constant": true,
      "inputs": [],
      "name": "redeemedCount",
      "outputs": [
        {
          "name": "",
          "type": "uint256"
        }
      ],
      "payable": false,
      "stateMutability": "view",
      "type": "function"
    },
    {
      "constant": true,
      "inputs": [
        {
          "name": "_pubKey",
          "type": "bytes"
        }
      ],
      "name": "pubKeyToEthereumAddress",
      "outputs": [
        {
          "name": "",
          "type": "address"
        }
      ],
      "payable": false,
      "stateMutability": "pure",
      "type": "function"
    },
    {
      "constant": true,
      "inputs": [],
      "name": "rootUtxoMerkleTreeHash",
      "outputs": [
        {
          "name": "",
          "type": "bytes32"
        }
      ],
      "payable": false,
      "stateMutability": "view",
      "type": "function"
    },
    {
      "constant": true,
      "inputs": [
        {
          "name": "owner",
          "type": "address"
        }
      ],
      "name": "balanceOf",
      "outputs": [
        {
          "name": "",
          "type": "uint256"
        }
      ],
      "payable": false,
      "stateMutability": "view",
      "type": "function"
    },
    {
      "constant": true,
      "inputs": [
        {
          "name": "_merkleLeafHash",
          "type": "bytes32"
        },
        {
          "name": "_proof",
          "type": "bytes32[]"
        }
      ],
      "name": "canRedeemUtxoHash",
      "outputs": [
        {
          "name": "",
          "type": "bool"
        }
      ],
      "payable": false,
      "stateMutability": "view",
      "type": "function"
    },
    {
      "constant": true,
      "inputs": [
        {
          "name": "",
          "type": "address"
        },
        {
          "name": "",
          "type": "uint256"
        }
      ],
      "name": "staked",
      "outputs": [
        {
          "name": "amount",
          "type": "uint256"
        },
        {
          "name": "stakeShares",
          "type": "uint256"
        },
        {
          "name": "stakeTime",
          "type": "uint256"
        },
        {
          "name": "unlockTime",
          "type": "uint256"
        }
      ],
      "payable": false,
      "stateMutability": "view",
      "type": "function"
    },
    {
      "constant": true,
      "inputs": [],
      "name": "geTrueSupply",
      "outputs": [
        {
          "name": "",
          "type": "uint256"
        }
      ],
      "payable": false,
      "stateMutability": "view",
      "type": "function"
    },
    {
      "constant": true,
      "inputs": [],
      "name": "symbol",
      "outputs": [
        {
          "name": "",
          "type": "string"
        }
      ],
      "payable": false,
      "stateMutability": "view",
      "type": "function"
    },
    {
      "constant": false,
      "inputs": [
        {
          "name": "spender",
          "type": "address"
        },
        {
          "name": "subtractedValue",
          "type": "uint256"
        }
      ],
      "name": "decreaseAllowance",
      "outputs": [
        {
          "name": "",
          "type": "bool"
        }
      ],
      "payable": false,
      "stateMutability": "nonpayable",
      "type": "function"
    },
    {
      "constant": false,
      "inputs": [
        {
          "name": "to",
          "type": "address"
        },
        {
          "name": "value",
          "type": "uint256"
        }
      ],
      "name": "transfer",
      "outputs": [
        {
          "name": "",
          "type": "bool"
        }
      ],
      "payable": false,
      "stateMutability": "nonpayable",
      "type": "function"
    },
    {
      "constant": true,
      "inputs": [],
      "name": "isClaimsPeriod",
      "outputs": [
        {
          "name": "",
          "type": "bool"
        }
      ],
      "payable": false,
      "stateMutability": "view",
      "type": "function"
    },
    {
      "constant": true,
      "inputs": [
        {
          "name": "_proof",
          "type": "bytes32[]"
        },
        {
          "name": "_merkleLeafHash",
          "type": "bytes32"
        }
      ],
      "name": "verifyProof",
      "outputs": [
        {
          "name": "",
          "type": "bool"
        }
      ],
      "payable": false,
      "stateMutability": "view",
      "type": "function"
    },
    {
      "constant": true,
      "inputs": [
        {
          "name": "_addr",
          "type": "address"
        },
        {
          "name": "_pubKey",
          "type": "bytes"
        },
        {
          "name": "_v",
          "type": "uint8"
        },
        {
          "name": "_r",
          "type": "bytes32"
        },
        {
          "name": "_s",
          "type": "bytes32"
        }
      ],
      "name": "ecdsaVerify",
      "outputs": [
        {
          "name": "",
          "type": "bool"
        }
      ],
      "payable": false,
      "stateMutability": "pure",
      "type": "function"
    },
    {
      "constant": true,
      "inputs": [
        {
          "name": "_originalAddress",
          "type": "bytes20"
        },
        {
          "name": "_satoshis",
          "type": "uint256"
        },
        {
          "name": "_proof",
          "type": "bytes32[]"
        }
      ],
      "name": "canRedeemUtxo",
      "outputs": [
        {
          "name": "",
          "type": "bool"
        }
      ],
      "payable": false,
      "stateMutability": "view",
      "type": "function"
    },
    {
      "constant": true,
      "inputs": [
        {
          "name": "owner",
          "type": "address"
        },
        {
          "name": "spender",
          "type": "address"
        }
      ],
      "name": "allowance",
      "outputs": [
        {
          "name": "",
          "type": "uint256"
        }
      ],
      "payable": false,
      "stateMutability": "view",
      "type": "function"
    },
    {
      "constant": true,
      "inputs": [
        {
          "name": "_pubKey",
          "type": "bytes"
        },
        {
          "name": "_isCompressed",
          "type": "bool"
        }
      ],
      "name": "pubKeyToBitcoinAddress",
      "outputs": [
        {
          "name": "",
          "type": "bytes20"
        }
      ],
      "payable": false,
      "stateMutability": "pure",
      "type": "function"
    },
    {
      "constant": true,
      "inputs": [],
      "name": "totalRedeemed",
      "outputs": [
        {
          "name": "",
          "type": "uint256"
        }
      ],
      "payable": false,
      "stateMutability": "view",
      "type": "function"
    },
    {
      "anonymous": false,
      "inputs": [
        {
          "indexed": true,
          "name": "from",
          "type": "address"
        },
        {
          "indexed": true,
          "name": "to",
          "type": "address"
        },
        {
          "indexed": false,
          "name": "value",
          "type": "uint256"
        }
      ],
      "name": "Transfer",
      "type": "event"
    },
    {
      "anonymous": false,
      "inputs": [
        {
          "indexed": true,
          "name": "owner",
          "type": "address"
        },
        {
          "indexed": true,
          "name": "spender",
          "type": "address"
        },
        {
          "indexed": false,
          "name": "value",
          "type": "uint256"
        }
      ],
      "name": "Approval",
      "type": "event"
    },
    {
      "constant": true,
      "inputs": [
        {
          "name": "_satoshis",
          "type": "uint256"
        }
      ],
      "name": "getRedeemAmount",
      "outputs": [
        {
          "name": "",
          "type": "uint256"
        },
        {
          "name": "",
          "type": "uint256"
        }
      ],
      "payable": false,
      "stateMutability": "view",
      "type": "function"
    },
    {
      "constant": false,
      "inputs": [
        {
          "name": "_satoshis",
          "type": "uint256"
        },
        {
          "name": "_proof",
          "type": "bytes32[]"
        },
        {
          "name": "_pubKey",
          "type": "bytes"
        },
        {
          "name": "_isCompressed",
          "type": "bool"
        },
        {
          "name": "_v",
          "type": "uint8"
        },
        {
          "name": "_r",
          "type": "bytes32"
        },
        {
          "name": "_s",
          "type": "bytes32"
        },
        {
          "name": "_referrer",
          "type": "address"
        }
      ],
      "name": "redeemUTXO",
      "outputs": [
        {
          "name": "",
          "type": "uint256"
        }
      ],
      "payable": false,
      "stateMutability": "nonpayable",
      "type": "function"
    }
  ],
  "bytecode": "0x60806040526000600555600060065534801561001a57600080fd5b50612e438061002a6000396000f300608060405260043610610180576000357c0100000000000000000000000000000000000000000000000000000000900463ffffffff16806306fdde03146101855780630867c0ad14610215578063095ea7b3146102b35780631765f4bf1461031857806318160ddd146103435780631aa024b71461036e5780631ee752701461039957806323b872dd146103b05780632c3ee88c14610435578063313ce5671461047d57806339509351146104a85780634d3c8bc81461050d5780634ecd81b31461052457806352aa3e6c146106435780635418796c1461066e5780636aaf67e21461071757806370a082311461074a57806381cd84b9146107a15780638f1698161461082d5780638f903a55146108a357806395d89b41146108ce578063a457c2d71461095e578063a9059cbb146109c3578063adf71f1f14610a28578063b80ac7df14610a57578063ce267b5514610ae3578063cfc2334e14610bad578063dd62ed3e14610c4e578063e073ef6914610cc5578063f35dad4014610d6c575b600080fd5b34801561019157600080fd5b5061019a610d97565b6040518080602001828103825283818151815260200191508051906020019080838360005b838110156101da5780820151818401526020810190506101bf565b50505050905090810190601f1680156102075780820380516001836020036101000a031916815260200191505b509250505060405180910390f35b34801561022157600080fd5b506102996004803603810190808035600019169060200190929190803560ff16906020019092919080356000191690602001909291908035600019169060200190929190803573ffffffffffffffffffffffffffffffffffffffff169060200190929190803515159060200190929190505050610dd0565b604051808215151515815260200191505060405180910390f35b3480156102bf57600080fd5b506102fe600480360381019080803573ffffffffffffffffffffffffffffffffffffffff16906020019092919080359060200190929190505050610fbb565b604051808215151515815260200191505060405180910390f35b34801561032457600080fd5b5061032d6110e8565b6040518082815260200191505060405180910390f35b34801561034f57600080fd5b506103586110ee565b6040518082815260200191505060405180910390f35b34801561037a57600080fd5b506103836110f8565b6040518082815260200191505060405180910390f35b3480156103a557600080fd5b506103ae6110fe565b005b3480156103bc57600080fd5b5061041b600480360381019080803573ffffffffffffffffffffffffffffffffffffffff169060200190929190803573ffffffffffffffffffffffffffffffffffffffff16906020019092919080359060200190929190505050611338565b604051808215151515815260200191505060405180910390f35b34801561044157600080fd5b50610460600480360381019080803590602001909291905050506114ea565b604051808381526020018281526020019250505060405180910390f35b34801561048957600080fd5b50610492611513565b6040518082815260200191505060405180910390f35b3480156104b457600080fd5b506104f3600480360381019080803573ffffffffffffffffffffffffffffffffffffffff16906020019092919080359060200190929190505050611518565b604051808215151515815260200191505060405180910390f35b34801561051957600080fd5b5061052261174f565b005b34801561053057600080fd5b5061062d6004803603810190808035906020019092919080359060200190820180359060200190808060200260200160405190810160405280939291908181526020018383602002808284378201915050505050509192919290803590602001908201803590602001908080601f0160208091040260200160405190810160405280939291908181526020018383808284378201915050505050509192919290803515159060200190929190803560ff16906020019092919080356000191690602001909291908035600019169060200190929190803573ffffffffffffffffffffffffffffffffffffffff16906020019092919050505061182b565b6040518082815260200191505060405180910390f35b34801561064f57600080fd5b50610658611bc3565b6040518082815260200191505060405180910390f35b34801561067a57600080fd5b506106d5600480360381019080803590602001908201803590602001908080601f0160208091040260200160405190810160405280939291908181526020018383808284378201915050505050509192919290505050611bc9565b604051808273ffffffffffffffffffffffffffffffffffffffff1673ffffffffffffffffffffffffffffffffffffffff16815260200191505060405180910390f35b34801561072357600080fd5b5061072c611c4f565b60405180826000191660001916815260200191505060405180910390f35b34801561075657600080fd5b5061078b600480360381019080803573ffffffffffffffffffffffffffffffffffffffff169060200190929190505050611c55565b6040518082815260200191505060405180910390f35b3480156107ad57600080fd5b50610813600480360381019080803560001916906020019092919080359060200190820180359060200190808060200260200160405190810160405280939291908181526020018383602002808284378201915050505050509192919290505050611c9d565b604051808215151515815260200191505060405180910390f35b34801561083957600080fd5b50610878600480360381019080803573ffffffffffffffffffffffffffffffffffffffff16906020019092919080359060200190929190505050611ce8565b6040518085815260200184815260200183815260200182815260200194505050505060405180910390f35b3480156108af57600080fd5b506108b8611d34565b6040518082815260200191505060405180910390f35b3480156108da57600080fd5b506108e3611d57565b6040518080602001828103825283818151815260200191508051906020019080838360005b83811015610923578082015181840152602081019050610908565b50505050905090810190601f1680156109505780820380516001836020036101000a031916815260200191505b509250505060405180910390f35b34801561096a57600080fd5b506109a9600480360381019080803573ffffffffffffffffffffffffffffffffffffffff16906020019092919080359060200190929190505050611d90565b604051808215151515815260200191505060405180910390f35b3480156109cf57600080fd5b50610a0e600480360381019080803573ffffffffffffffffffffffffffffffffffffffff16906020019092919080359060200190929190505050611fc7565b604051808215151515815260200191505060405180910390f35b348015610a3457600080fd5b50610a3d611fde565b604051808215151515815260200191505060405180910390f35b348015610a6357600080fd5b50610ac9600480360381019080803590602001908201803590602001908080602002602001604051908101604052809392919081815260200183836020028082843782019150505050505091929192908035600019169060200190929190505050611ff0565b604051808215151515815260200191505060405180910390f35b348015610aef57600080fd5b50610b93600480360381019080803573ffffffffffffffffffffffffffffffffffffffff169060200190929190803590602001908201803590602001908080601f0160208091040260200160405190810160405280939291908181526020018383808284378201915050505050509192919290803560ff16906020019092919080356000191690602001909291908035600019169060200190929190505050612007565b604051808215151515815260200191505060405180910390f35b348015610bb957600080fd5b50610c3460048036038101908080356bffffffffffffffffffffffff191690602001909291908035906020019092919080359060200190820180359060200190808060200260200160405190810160405280939291908181526020018383602002808284378201915050505050509192919290505050612126565b604051808215151515815260200191505060405180910390f35b348015610c5a57600080fd5b50610caf600480360381019080803573ffffffffffffffffffffffffffffffffffffffff169060200190929190803573ffffffffffffffffffffffffffffffffffffffff1690602001909291905050506121e7565b6040518082815260200191505060405180910390f35b348015610cd157600080fd5b50610d38600480360381019080803590602001908201803590602001908080601f016020809104026020016040519081016040528093929190818152602001838380828437820191505050505050919291929080351515906020019092919050505061226e565b60405180826bffffffffffffffffffffffff19166bffffffffffffffffffffffff1916815260200191505060405180910390f35b348015610d7857600080fd5b50610d8161262d565b6040518082815260200191505060405180910390f35b6040805190810160405280600a81526020017f426974636f696e4865780000000000000000000000000000000000000000000081525081565b6000806060831515610de457889150610efe565b6040805190810160405280601c81526020017f19457468657265756d205369676e6564204d6573736167653a0a333200000000815250905080896040516020018083805190602001908083835b602083101515610e565780518252602082019150602081019050602083039250610e31565b6001836020036101000a0380198251168184511680821785525050505050509050018260001916600019168152602001925050506040516020818303038152906040526040518082805190602001908083835b602083101515610ece5780518252602082019150602081019050602083039250610ea9565b6001836020036101000a038019825116818451168082178552505050505050905001915050604051809103902091505b8473ffffffffffffffffffffffffffffffffffffffff166001838a8a8a604051600081526020016040526040518085600019166000191681526020018460ff1660ff1681526020018360001916600019168152602001826000191660001916815260200194505050505060206040516020810390808403906000865af1158015610f8c573d6000803e3d6000fd5b5050506020604051035173ffffffffffffffffffffffffffffffffffffffff1614925050509695505050505050565b60008073ffffffffffffffffffffffffffffffffffffffff168373ffffffffffffffffffffffffffffffffffffffff1614151515610ff857600080fd5b81600160003373ffffffffffffffffffffffffffffffffffffffff1673ffffffffffffffffffffffffffffffffffffffff16815260200190815260200160002060008573ffffffffffffffffffffffffffffffffffffffff1673ffffffffffffffffffffffffffffffffffffffff168152602001908152602001600020819055508273ffffffffffffffffffffffffffffffffffffffff163373ffffffffffffffffffffffffffffffffffffffff167f8c5be1e5ebec7d5bd14f71427d1e84f3dd0314c0f7b2291e5b200ac8c7c3b925846040518082815260200191505060405180910390a36001905092915050565b60115481565b6000600254905090565b60125481565b60005b600a5461110c612633565b11156113355761112e610416611120612643565b61266e90919063ffffffff16565b9050611138611fde565b156112a9576111d861117c600a61116e600f546111606005548761269890919063ffffffff16565b61266e90919063ffffffff16565b61266e90919063ffffffff16565b6111ca6111bb600a6111ad600e5461119f6006548961269890919063ffffffff16565b61266e90919063ffffffff16565b61266e90919063ffffffff16565b846126d690919063ffffffff16565b6126d690919063ffffffff16565b9050611241600360009054906101000a900473ffffffffffffffffffffffffffffffffffffffff1661123c600a61122e600e546112206006548861269890919063ffffffff16565b61266e90919063ffffffff16565b61266e90919063ffffffff16565b6126f7565b6112a8600360009054906101000a900473ffffffffffffffffffffffffffffffffffffffff166112a3600a611295600f546112876005548861269890919063ffffffff16565b61266e90919063ffffffff16565b61266e90919063ffffffff16565b6126f7565b5b6112be600c54826126d690919063ffffffff16565b90506000600c819055506040805190810160405280828152602001601154815250600d60006112f96001600a546126d690919063ffffffff16565b81526020019081526020016000206000820151816000015560208201518160010155905050600a60008154809291906001019190505550611101565b50565b6000600160008573ffffffffffffffffffffffffffffffffffffffff1673ffffffffffffffffffffffffffffffffffffffff16815260200190815260200160002060003373ffffffffffffffffffffffffffffffffffffffff1673ffffffffffffffffffffffffffffffffffffffff1681526020019081526020016000205482111515156113c557600080fd5b61145482600160008773ffffffffffffffffffffffffffffffffffffffff1673ffffffffffffffffffffffffffffffffffffffff16815260200190815260200160002060003373ffffffffffffffffffffffffffffffffffffffff1673ffffffffffffffffffffffffffffffffffffffff1681526020019081526020016000205461283590919063ffffffff16565b600160008673ffffffffffffffffffffffffffffffffffffffff1673ffffffffffffffffffffffffffffffffffffffff16815260200190815260200160002060003373ffffffffffffffffffffffffffffffffffffffff1673ffffffffffffffffffffffffffffffffffffffff168152602001908152602001600020819055506114df848484612856565b600190509392505050565b6000806000806114f985612a6f565b915061150482612ab8565b90508181935093505050915091565b600881565b60008073ffffffffffffffffffffffffffffffffffffffff168373ffffffffffffffffffffffffffffffffffffffff161415151561155557600080fd5b6115e482600160003373ffffffffffffffffffffffffffffffffffffffff1673ffffffffffffffffffffffffffffffffffffffff16815260200190815260200160002060008673ffffffffffffffffffffffffffffffffffffffff1673ffffffffffffffffffffffffffffffffffffffff168152602001908152602001600020546126d690919063ffffffff16565b600160003373ffffffffffffffffffffffffffffffffffffffff1673ffffffffffffffffffffffffffffffffffffffff16815260200190815260200160002060008573ffffffffffffffffffffffffffffffffffffffff1673ffffffffffffffffffffffffffffffffffffffff168152602001908152602001600020819055508273ffffffffffffffffffffffffffffffffffffffff163373ffffffffffffffffffffffffffffffffffffffff167f8c5be1e5ebec7d5bd14f71427d1e84f3dd0314c0f7b2291e5b200ac8c7c3b925600160003373ffffffffffffffffffffffffffffffffffffffff1673ffffffffffffffffffffffffffffffffffffffff16815260200190815260200160002060008773ffffffffffffffffffffffffffffffffffffffff1673ffffffffffffffffffffffffffffffffffffffff168152602001908152602001600020546040518082815260200191505060405180910390a36001905092915050565b60005b60095461175d612b20565b11156118285761177a600554600f5461283590919063ffffffff16565b90506040805190810160405280828152602001601154815250600b60006117ad60016009546126d690919063ffffffff16565b81526020019081526020016000206000820151816000015560208201518160010155905050611811600360009054906101000a900473ffffffffffffffffffffffffffffffffffffffff1661180c60328461266e90919063ffffffff16565b6126f7565b600960008154809291906001019190505550611752565b50565b600080600080600061183b611fde565b151561184657600080fd5b6118508b8b61226e565b9350838d60405160200180836bffffffffffffffffffffffff19166bffffffffffffffffffffffff19168152601401828152602001925050506040516020818303038152906040526040518082805190602001908083835b6020831015156118cd57805182526020820191506020810190506020830392506118a8565b6001836020036101000a03801982511681845116808217855250505050505090500191505060405180910390209250611906838d611c9d565b151561191157600080fd5b61191961174f565b6119216110fe565b61192e338c8b8b8b612007565b151561193957600080fd5b600f54611951836005546126d690919063ffffffff16565b1115151561195e57600080fd5b6119738d6005546126d690919063ffffffff16565b600581905550600160086000856000191660001916815260200190815260200160002060006101000a81548160ff0219169083151502179055506119b68d6114ea565b915091506119d6336119d183856126d690919063ffffffff16565b6126f7565b611a02600360009054906101000a900473ffffffffffffffffffffffffffffffffffffffff16826126f7565b611a1860016006546126d690919063ffffffff16565b6006819055503373ffffffffffffffffffffffffffffffffffffffff16600073ffffffffffffffffffffffffffffffffffffffff167fddf252ad1be2c89b69c2b068fc378daa952ba7f163c4a11628f55a4df523b3ef611a8184866126d690919063ffffffff16565b6040518082815260200191505060405180910390a3600360009054906101000a900473ffffffffffffffffffffffffffffffffffffffff1673ffffffffffffffffffffffffffffffffffffffff16600073ffffffffffffffffffffffffffffffffffffffff167fddf252ad1be2c89b69c2b068fc378daa952ba7f163c4a11628f55a4df523b3ef836040518082815260200191505060405180910390a3600073ffffffffffffffffffffffffffffffffffffffff168673ffffffffffffffffffffffffffffffffffffffff16141515611b9e57611b5e86836126f7565b611b9d600360009054906101000a900473ffffffffffffffffffffffffffffffffffffffff16611b9860148561266e90919063ffffffff16565b6126f7565b5b611bb181836126d690919063ffffffff16565b94505050505098975050505050505050565b60065481565b600073ffffffffffffffffffffffffffffffffffffffff826040518082805190602001908083835b602083101515611c165780518252602082019150602081019050602083039250611bf1565b6001836020036101000a038019825116818451168082178552505050505050905001915050604051809103902060019004169050919050565b60075481565b60008060008373ffffffffffffffffffffffffffffffffffffffff1673ffffffffffffffffffffffffffffffffffffffff168152602001908152602001600020549050919050565b600080151560086000856000191660001916815260200190815260200160002060009054906101000a900460ff161515148015611ce05750611cdf8284611ff0565b5b905092915050565b601060205281600052604060002081815481101515611d0357fe5b9060005260206000209060040201600091509150508060000154908060010154908060020154908060030154905084565b6000611d52601154611d446110ee565b6126d690919063ffffffff16565b905090565b6040805190810160405280600381526020017f424858000000000000000000000000000000000000000000000000000000000081525081565b60008073ffffffffffffffffffffffffffffffffffffffff168373ffffffffffffffffffffffffffffffffffffffff1614151515611dcd57600080fd5b611e5c82600160003373ffffffffffffffffffffffffffffffffffffffff1673ffffffffffffffffffffffffffffffffffffffff16815260200190815260200160002060008673ffffffffffffffffffffffffffffffffffffffff1673ffffffffffffffffffffffffffffffffffffffff1681526020019081526020016000205461283590919063ffffffff16565b600160003373ffffffffffffffffffffffffffffffffffffffff1673ffffffffffffffffffffffffffffffffffffffff16815260200190815260200160002060008573ffffffffffffffffffffffffffffffffffffffff1673ffffffffffffffffffffffffffffffffffffffff168152602001908152602001600020819055508273ffffffffffffffffffffffffffffffffffffffff163373ffffffffffffffffffffffffffffffffffffffff167f8c5be1e5ebec7d5bd14f71427d1e84f3dd0314c0f7b2291e5b200ac8c7c3b925600160003373ffffffffffffffffffffffffffffffffffffffff1673ffffffffffffffffffffffffffffffffffffffff16815260200190815260200160002060008773ffffffffffffffffffffffffffffffffffffffff1673ffffffffffffffffffffffffffffffffffffffff168152602001908152602001600020546040518082815260200191505060405180910390a36001905092915050565b6000611fd4338484612856565b6001905092915050565b60006032611fea612b20565b10905090565b6000611fff8360075484612b30565b905092915050565b600061211b600287604051602001808273ffffffffffffffffffffffffffffffffffffffff1673ffffffffffffffffffffffffffffffffffffffff166c010000000000000000000000000281526014019150506040516020818303038152906040526040518082805190602001908083835b60208310151561209e5780518252602082019150602081019050602083039250612079565b6001836020036101000a0380198251168184511680821785525050505050509050019150506020604051808303816000865af11580156120e2573d6000803e3d6000fd5b5050506040513d60208110156120f757600080fd5b81019080805190602001909291905050508585856121148a611bc9565b6000610dd0565b905095945050505050565b600080848460405160200180836bffffffffffffffffffffffff19166bffffffffffffffffffffffff19168152601401828152602001925050506040516020818303038152906040526040518082805190602001908083835b6020831015156121a4578051825260208201915060208101905060208303925061217f565b6001836020036101000a038019825116818451168082178552505050505050905001915050604051809103902090506121dd8184611c9d565b9150509392505050565b6000600160008473ffffffffffffffffffffffffffffffffffffffff1673ffffffffffffffffffffffffffffffffffffffff16815260200190815260200160002060008373ffffffffffffffffffffffffffffffffffffffff1673ffffffffffffffffffffffffffffffffffffffff16815260200190815260200160002054905092915050565b60008060008061227f866000612cd3565b600190049250612290866020612cd3565b600190049150841561246c5760006002838115156122aa57fe5b06146122b75760036122ba565b60025b9050600360028285604051602001808360ff1660ff167f0100000000000000000000000000000000000000000000000000000000000000028152600101828152602001925050506040516020818303038152906040526040518082805190602001908083835b6020831015156123455780518252602082019150602081019050602083039250612320565b6001836020036101000a0380198251168184511680821785525050505050509050019150506020604051808303816000865af1158015612389573d6000803e3d6000fd5b5050506040513d602081101561239e57600080fd5b81019080805190602001909291905050506040516020018082600019166000191681526020019150506040516020818303038152906040526040518082805190602001908083835b60208310151561240b57805182526020820191506020810190506020830392506123e6565b6001836020036101000a0380198251168184511680821785525050505050509050019150506020604051808303816000865af115801561244f573d6000803e3d6000fd5b505050604051516c01000000000000000000000000029350612624565b6004905060036002828585604051602001808460ff1660ff167f010000000000000000000000000000000000000000000000000000000000000002815260010183815260200182815260200193505050506040516020818303038152906040526040518082805190602001908083835b60208310151561250157805182526020820191506020810190506020830392506124dc565b6001836020036101000a0380198251168184511680821785525050505050509050019150506020604051808303816000865af1158015612545573d6000803e3d6000fd5b5050506040513d602081101561255a57600080fd5b81019080805190602001909291905050506040516020018082600019166000191681526020019150506040516020818303038152906040526040518082805190602001908083835b6020831015156125c757805182526020820191506020810190506020830392506125a2565b6001836020036101000a0380198251168184511680821785525050505050509050019150506020604051808303816000865af115801561260b573d6000803e3d6000fd5b505050604051516c010000000000000000000000000293505b50505092915050565b60055481565b600061263e42612db1565b905090565b60008061264e6110ee565b9050600f5461265b6110ee565b101561266757600f5490505b8091505090565b60008060008311151561268057600080fd5b828481151561268b57fe5b0490508091505092915050565b60008060008414156126ad57600091506126cf565b82840290508284828115156126be57fe5b041415156126cb57600080fd5b8091505b5092915050565b60008082840190508381101515156126ed57600080fd5b8091505092915050565b60008273ffffffffffffffffffffffffffffffffffffffff161415151561271d57600080fd5b612732816002546126d690919063ffffffff16565b600281905550612789816000808573ffffffffffffffffffffffffffffffffffffffff1673ffffffffffffffffffffffffffffffffffffffff168152602001908152602001600020546126d690919063ffffffff16565b6000808473ffffffffffffffffffffffffffffffffffffffff1673ffffffffffffffffffffffffffffffffffffffff168152602001908152602001600020819055508173ffffffffffffffffffffffffffffffffffffffff16600073ffffffffffffffffffffffffffffffffffffffff167fddf252ad1be2c89b69c2b068fc378daa952ba7f163c4a11628f55a4df523b3ef836040518082815260200191505060405180910390a35050565b60008083831115151561284757600080fd5b82840390508091505092915050565b6000808473ffffffffffffffffffffffffffffffffffffffff1673ffffffffffffffffffffffffffffffffffffffff1681526020019081526020016000205481111515156128a357600080fd5b600073ffffffffffffffffffffffffffffffffffffffff168273ffffffffffffffffffffffffffffffffffffffff16141515156128df57600080fd5b612930816000808673ffffffffffffffffffffffffffffffffffffffff1673ffffffffffffffffffffffffffffffffffffffff1681526020019081526020016000205461283590919063ffffffff16565b6000808573ffffffffffffffffffffffffffffffffffffffff1673ffffffffffffffffffffffffffffffffffffffff168152602001908152602001600020819055506129c3816000808573ffffffffffffffffffffffffffffffffffffffff1673ffffffffffffffffffffffffffffffffffffffff168152602001908152602001600020546126d690919063ffffffff16565b6000808473ffffffffffffffffffffffffffffffffffffffff1673ffffffffffffffffffffffffffffffffffffffff168152602001908152602001600020819055508173ffffffffffffffffffffffffffffffffffffffff168373ffffffffffffffffffffffffffffffffffffffff167fddf252ad1be2c89b69c2b068fc378daa952ba7f163c4a11628f55a4df523b3ef836040518082815260200191505060405180910390a3505050565b6000612ab16064612aa3612a946002612a86612b20565b61269890919063ffffffff16565b8561269890919063ffffffff16565b61266e90919063ffffffff16565b9050919050565b600080600060649150612aee612adf6002612ad1612b20565b61269890919063ffffffff16565b8361283590919063ffffffff16565b9050612b176103e8612b09838761269890919063ffffffff16565b61266e90919063ffffffff16565b92505050919050565b6000612b2b42612de4565b905090565b600080600080849250600091505b8651821015612cbc578682815181101515612b5557fe5b906020019060200201519050806000191683600019161015612c125782816040516020018083600019166000191681526020018260001916600019168152602001925050506040516020818303038152906040526040518082805190602001908083835b602083101515612bde5780518252602082019150602081019050602083039250612bb9565b6001836020036101000a03801982511681845116808217855250505050505090500191505060405180910390209250612caf565b80836040516020018083600019166000191681526020018260001916600019168152602001925050506040516020818303038152906040526040518082805190602001908083835b602083101515612c7f5780518252602082019150602081019050602083039250612c5a565b6001836020036101000a038019825116818451168082178552505050505050905001915050604051809103902092505b8180600101925050612b3e565b856000191683600019161493505050509392505050565b60008060008090505b6020811015612da6576008810285858301815181101515612cf957fe5b9060200101517f010000000000000000000000000000000000000000000000000000000000000090047f0100000000000000000000000000000000000000000000000000000000000000027effffffffffffffffffffffffffffffffffffffffffffffffffffffffffffff19167fff0000000000000000000000000000000000000000000000000000000000000060010216600019169060020a9004821891508080600101915050612cdc565b819250505092915050565b6000612ddd620d2f00612dcf6004548561283590919063ffffffff16565b61266e90919063ffffffff16565b9050919050565b6000612e1062093a80612e026004548561283590919063ffffffff16565b61266e90919063ffffffff16565b90509190505600a165627a7a72305820ac1a7c82697a4e2ec4a90865a1466b513c9c63873a945386e6e6b6d0ebc150cb0029",
  "source": "pragma solidity ^0.4.24;\n\nimport \"./UTXOClaimValidation.sol\";\nimport \"../node_modules/openzeppelin-solidity/contracts/math/SafeMath.sol\";\n\ncontract UTXORedeemableToken is UTXOClaimValidation {\n  using SafeMath for uint256;\n  \n  /**\n  * @dev Calculates speed bonus for claiming early\n  * @param _satoshis Amount of UTXO in satoshis\n  * @return Speed bonus amount\n  */\n  function getSpeedBonus(uint256 _satoshis) internal view returns (uint256) {\n    uint256 hundred = 100;\n    uint256 scalar = hundred.sub(weeksSinceLaunch().mul(2)); // This math breaks after 50 weeks, claims disabled after 50 weeks, no issue\n    return (_satoshis.mul(scalar).div(1000));\n  }\n\n  /**\n  * @dev Returns adjusted claim amount based on weeks passed since launch\n  * @param _satoshis Amount of UTXO in satoshis\n  * @return Adjusted claim amount\n  */\n  function getLateClaimAdjustedAmount(uint256 _satoshis) internal view returns (uint256) {\n    return _satoshis.mul(weeksSinceLaunch().mul(2)).div(100); // This math breaks after 50 weeks, claims disabled after 50 weeks, no issue\n  }\n\n  /**\n  * @dev PUBLIC FACING: Get post-adjustment redeem amount if claim of x satoshis redeemed\n  * @param _satoshis Amount of UTXO in satoshis\n  * @return 1: Adjusted claim amount; 2: Total claim bonuses\n  */\n  function getRedeemAmount(uint256 _satoshis) public view returns (uint256, uint256) {\n    uint256 _amount = getLateClaimAdjustedAmount(_satoshis);\n    uint256 _bonus = getSpeedBonus(_amount);\n    return (_amount, _bonus);\n  }\n\n  /**\n   * @dev PUBLIC FACING: Redeem a UTXO, crediting a proportional amount of tokens (if valid) to the sending address\n   * @param _satoshis Amount of UTXO in satoshis\n   * @param _proof Merkle tree proof\n   * @param _pubKey Uncompressed ECDSA public key to which the UTXO was sent\n   * @param _isCompressed Whether the Bitcoin address was generated from a compressed public key\n   * @param _v v parameter of ECDSA signature\n   * @param _r r parameter of ECDSA signature\n   * @param _s s parameter of ECDSA signature\n   * @param _referrer (optional, send 0x0 for no referrer) addresss of referring persons\n   * @return The number of tokens redeemed, if successful\n   */\n  function redeemUTXO(\n    uint256 _satoshis,\n    bytes32[] _proof,\n    bytes _pubKey,\n    bool _isCompressed,\n    uint8 _v,\n    bytes32 _r,\n    bytes32 _s,\n    address _referrer\n  ) public returns (uint256) {\n    /* Disable claims after 50 weeks */\n    require(isClaimsPeriod());\n\n    /* Calculate original Bitcoin-style address associated with the provided public key. */\n    bytes20 _originalAddress = pubKeyToBitcoinAddress(_pubKey, _isCompressed);\n\n    /* Calculate the UTXO Merkle leaf hash. */\n    bytes32 _merkleLeafHash = keccak256(\n      abi.encodePacked(\n        _originalAddress, \n        _satoshis\n      )\n    );\n\n     /* Verify that the UTXO can be redeemed. */\n    require(canRedeemUtxoHash(_merkleLeafHash, _proof));\n\n    /* Check if log data needs to be updated */\n    storeWeeklyData();\n    storePeriodData();\n\n    /* Claimant must sign the Ethereum address to which they wish to remit the redeemed tokens. */\n    require(\n      ecdsaVerify(\n        msg.sender, \n        _pubKey, \n        _v, \n        _r, \n        _s\n      )\n    );\n\n    /* Sanity check. */\n    require(totalRedeemed.add(_tokensRedeemed) <= maximumRedeemable);\n\n    /* Track total redeemed tokens. This needs to be logged before scaling */\n    totalRedeemed = totalRedeemed.add(_satoshis);\n\n    /* Mark the UTXO as redeemed. */\n    redeemedUTXOs[_merkleLeafHash] = true;\n\n    /* Fetch value of claim */\n    (uint256 _tokensRedeemed, uint256 _bonuses) = getRedeemAmount(_satoshis);\n\n    /* Credit the redeemer, and award bonuses to origin. */ \n    _mint(msg.sender, _tokensRedeemed.add(_bonuses));\n    _mint(origin, _bonuses);\n\n    /* Increment Redeem Count to track viral rewards */\n    redeemedCount = redeemedCount.add(1);\n\n    /* Mark the transfer event. */\n    emit Transfer(address(0), msg.sender, _tokensRedeemed.add(_bonuses));\n    emit Transfer(address(0), origin, _bonuses);\n\n    /* Check if non-zero referral address has been passed */\n    if (_referrer != address(0)) {\n      /* Credit referrer and origin */\n      _mint(_referrer, _tokensRedeemed);\n      _mint(origin, _tokensRedeemed.div(20));\n    }\n    \n    /* Return the number of tokens redeemed. */\n    return _tokensRedeemed.add(_bonuses);\n  }\n}",
  "sourcePath": "/Users/mesquka/Git/Bitcoin Hex/contract/contracts/UTXORedeemableToken.sol",
  "compiler": {
    "name": "solc",
    "version": "0.4.24+commit.e67f0147.Emscripten.clang"
  },
  "schemaVersion": "2.0.1",
  "updatedAt": "2018-11-04T20:26:44.120Z"
}